:020000042001D9
:100000009711FF5F938181F99722000093828240CC
:100010007390523093020000638402007350107C8E
:100020001701FFDF130101FE9700FFDF938080FDC2
:10003000638300008290732540F1814501460D20C5
:100040009700FFDF938000FC63830000829097029B
:1000500000009382C2007390523003230000F5BF6A
:1000600006849711FF5F938161F3138101D381426D
:10007000130300406385A2001A918502E5BF137146
:1000800001FF9302000063195508977200009382E4
:1000900062321703FF5F1303E3F69703FF5F938357
:1000A0002377638C6200635A730003A502009102F8
:1000B0002320A3001103E34A73FE9772000093828A
:1000C000622F1703FF5F1303E3F39703FF5F93832D
:1000D00063F3638C6200635A730003A5020091020C
:1000E0002320A3001103E34A73FE1703FF5F1303EA
:1000F000237293830193635773002320030011033A
:10010000E34D73FE11C2029617650000130545A169
:10011000EF50301DEF503024EF50205EF3271030A9
:100120003707010013078702F98F89CBF3270030C7
:100130000967D98F73900730735030000545977564
:1001400000009385E514177600001306A6143120ED
:10015000EF50501AA28082808280411106C2F322A1
:1001600040F1130300006385620073005010F5BF77
:080170008528924041018280C4
:100180009707FFDF938707E899C7176500001305F6
:1001900025996F5010158280797106D622D40018E7
:1001A000232EA4FC0327C4FD9307803EB307F70268
:1001B0002326F4FEEF00906CAA872324F4FE0100AE
:1001C000EF00D06BAA87BE860327C4FE832784FE78
:1001D000BA97E3E7F6FE0100B250225445618280EF
:1001E000411106C622C40008B76701201385C75213
:1001F000EF10C012EF009068AA87BE85B767012094
:100200001385C753EF00F07F2945EF00105F0145CC
:10021000EF20602B2A8723A2E19283A7419299E7DE
:10022000B76701201385C754EF10400F0145EF2039
:10023000402F2A8723A4E19283A7819289EBB76795
:10024000012013854756EF10600D854795A6B767C7
:10025000012013850758EF10600C83A74192D94500
:100260003E85EF20C01B83A74192D5453E85EF20F8
:10027000001B83A74192CD453E85EF20401A83A7FE
:1002800041920546D9453E85EF20601D83A74192E6
:100290000546CD453E85EF20801C83A7419205464B
:1002A000D5453E85EF20A01BB707008083A7077ABE
:1002B00023A00700B76701201385C759FD2C010053
:1002C0002945EF00D057AA87E5DFEF00D005AA87C0
:1002D00099C7B76701201385475AEF102004B76705
:1002E00001201385C759D12C01002945EF00305555
:1002F000AA87E5DFEF003003AA8799C7B767012017
:100300001385475AEF108001B76701201385875A7C
:100310006D24EF005001AA8799C7B76701201385A4
:10032000475AEF00B07FB76701201385875B7124C0
:1003300001002945EF00B050AA87E5DFEF00A07E5D
:10034000AA8799C7B76701201385475AEF00107D28
:1003500001002945EF00B04EAA87E5DFEF00A07C41
:10036000AA8799C7B76701201385475AEF00107B0A
:1003700001002945EF00B04CAA87E5DFEF00A07A25
:10038000AA8799C7B76701201385475AEF001079EC
:10039000B76701201385875D0D2401002945EF0013
:1003A000104AAA87E5DFEF000078AA8799C7B767E8
:1003B00001201385475AEF00707601002945EF00B0
:1003C0001048AA87E5DFEF000076AA8799C7B767CC
:1003D00001201385475AEF007074B7670120138519
:1003E000C761E12A01002945EF007045AA87E5DFD2
:1003F000EF006073AA8799C7B76701201385475A32
:10040000EF00D07101002945EF007043AA87E5DFB6
:10041000EF006071AA8799C7B76701201385475A13
:10042000EF00D06FB76701201385C7627922B767E5
:1004300001201385C767EF00706E01002945EF00AA
:100440001040AA87E5DFEF00006EAA8799C7B7675B
:1004500001201385475AEF00706CB76701201385A0
:100460008768EF00B06B01002945EF00503DAA8777
:10047000E5DFEF00406BAA8799C7B76701201385B6
:10048000475AEF00B069B767012013854769EF004D
:10049000F06801002945EF00903AAA87E5DF452E74
:1004A000AA8799C7B76701201385475AEF001067DD
:1004B00001002945EF00B038AA87E5DFB7670120C2
:1004C0001385076AEF009065EF00E065AA870D4786
:1004D000638EE70211476381E70609476394E708E3
:1004E00083A741920546CD453E85EF10507783A7FF
:1004F00041920546D5453E85EF10707683A741921F
:100500000146D9453E85EF109075A9A883A7419271
:100510000146CD453E85EF10907483A74192054674
:10052000D5453E85EF10B07383A741920546D94566
:100530003E85EF10D0723DA083A741920546CD4580
:100540003E85EF10D07183A741920146D5453E8587
:10055000EF10F07083A741920546D9453E85EF1014
:1005600010700100B76701201385C76AEF00105BA8
:10057000B76701201385076C892001002945EF002A
:10058000102CAA87E5DFEF00005AAA873E8785472F
:10059000E300F7E0B76701201385475AEF001058D2
:1005A00001002945EF00B029AA87E5DFAD2BCDB3C7
:1005B0003E85B240224441018280397106DE22DC50
:1005C00080002326A4FC0325C4FCEF00D055AA8795
:1005D000232EF4FC8947230CF4FCA30C04FC230D0C
:1005E00004FCA30D04FC8327C4FD93F7F70F230A33
:1005F000F4FCA30A04FC230B04FC93071004A30BD4
:10060000F4FC0325C4FCEF00705171A8B70700800B
:1006100083A7077A094798C383A7C180944383A718
:10062000C180370701FF7D17758F98C3232404FE0F
:10063000A9A80100B707008083A787799C43E3CB73
:1006400007FE832784FE130704FFBA9703C787FEBC
:10065000B707008083A7877998C3B707008083A76F
:10066000C7799C432326F4FE01A8B707008083A71F
:10067000C7799C432326F4FE8327C4FEE3C707FE05
:10068000832784FE85072324F4FE032784FE8D47F9
:10069000E3D1E7FAB707008083A7077A23A0070012
:1006A0001305401FD53C2945EF007019AA87B9DF13
:1006B000B707008083A7077A094798C383A7C1803B
:1006C000944383A7C180370701FF7D17758F98C3B7
:1006D00001002945EF00B016AA87E5DF232204FEBA
:1006E00051A00100B707008083A787799C43E3CB23
:1006F00007FE832744FE130704FFBA9703C747FE8C
:10070000B707008083A7877998C3B707008083A7BE
:10071000C7799C432326F4FE2DA82945EF0030120B
:10072000AA878DE3B707008083A7077A23A0070075
:1007300083A7C180944383A7C180370701FF7D173A
:10074000758F98C3B707008083A7C7799C4323267A
:10075000F4FE8327C4FEE3C207FC832744FE85071B
:100760002322F4FE032744FE8D47E3DCE7F6B707B8
:10077000008083A7077A23A0070001002945EF0026
:10078000100CAA87E5DF13054006393483A7C18022
:10079000944383A7C180370701FF7D17758F98C3E6
:1007A000B707008083A7077A094798C3232004FE70
:1007B0008DA8832704FE0327C4FCBA9703C707004C
:1007C000B707008083A7877998C30100B707008027
:1007D00083A787799C43E3CB07FEB707008083A7F5
:1007E000C7799C432326F4FE25A0B707008083A782
:1007F000C7799C432326F4FE2945EF005004AA87BD
:1008000081EBB707008083A7077A23A0070029A000
:100810008327C4FEE3CB07FC832704FE8507232040
:10082000F4FE032704FE8327C4FDE344F7F8B7076B
:10083000008083A7077A23A00700896713850771C3
:10084000EFF09F950100F25062542161828059714E
:1008500086D6A2D480188547230CF4F8A30C04F89C
:10086000230D04F8A30D04F89307C4F9130600023E
:1008700081453E85EF00700E83A7C180944383A716
:10088000C180370701FF7D17758F98C383A701814A
:10089000094798C3232604FE51A80100B70700802A
:1008A00083A787799C43E3CB07FE8327C4FE130706
:1008B00004FFBA9703C787FAB707008083A7877931
:1008C00098C3B707008083A7C77998438327C4FEDE
:1008D0008A07930604FFB69723A6E7FA0DA82945D1
:1008E000EF00E075AA8799E7B707008083A7077A2A
:1008F00023A00700B707008083A7C7799843832701
:10090000C4FE8A07930604FFB69723A6E7FA832757
:10091000C4FE8A07130704FFBA9783A7C7FAE3C088
:1009200007FC8327C4FE85072326F4FE0327C4FEA5
:100930008D47E3D4E7F683A7018123A007000100D8
:100940002945EF00C06FAA87E5DF2945EFF0DF8476
:10095000B707008003A7C7799307C4F91146BA8582
:100960003E85EF00207483A7C180944383A7C18094
:10097000370701FF7D17758F98C383A7018109474A
:1009800098C3232404FE69A80100B707008083A749
:1009900087799C43E3CB07FEB707008083A787795D
:1009A00023A00700B707008083A7C7799843832750
:1009B00084FE8A07930604FFB69723A6E7FA91A060
:1009C000B707008083A7C7799843832784FE8A07E7
:1009D000930604FFB69723A6E7FA29458D25AA8733
:1009E0008DE3B707008083A7077A23A0070083A7BA
:1009F000C180944383A7C180370701FF7D17758F9E
:100A000098C3832784FE8A07130704FFBA9783A736
:100A1000C7FAE3C707FA832784FE85072324F4FE79
:100A2000032784FE8D47E3D1E7F683A7018123A046
:100A30000700032784FA93072004631CF702832727
:100A4000C4F9139707014183832704FAC207C183BE
:100A50009E07C207C183BA97C207C183231FF4FC54
:100A60009307C4F91306000281453E85EF00E06E4E
:100A700019A0814765A02945D923AA87EDDF29451B
:100A8000EFF08FF183A7C180944383A7C18037071C
:100A900001FF7D17758F98C383A70181094798C30C
:100AA000231304FEA5A0B707008083A78779035707
:100AB00064FE98C3B707008083A7C7799C432320AF
:100AC000F4FE25A8B707008083A7C7799C4323209D
:100AD000F4FE2945AD23AA878DE3B707008083A7DD
:100AE000077A23A0070083A7C180944383A7C1800E
:100AF000370701FF7D17758F98C3832704FEE3C373
:100B000007FC835764FE85072313F4FE2945052B54
:100B1000AA87D1FB83A7018123A007003E85B65099
:100B2000265465618280157186CFA2CDA6CBCAC935
:100B3000CEC7D2C5D6C3DAC15EDF62DD66DB801107
:100B400085472304F4F2A30404F2230504F2A30569
:100B500004F2930704F31306000281453E85F52B4A
:100B600083A7C180944383A7C180370701FF7D1706
:100B7000758F98C383A70181094798C3232E04FA70
:100B80005DA08327C4FB130704FDBA9703C787F54D
:100B9000B707008083A7877998C30100B707008053
:100BA00083A787799C43E3CB07FEB707008083A721
:100BB000C77998438327C4FB8A07930604FDB69739
:100BC00023A0E7F691A0B707008083A7C7799843D1
:100BD0008327C4FB8A07930604FDB69723A0E7F694
:100BE0002945B129AA878DE3B707008083A7077A33
:100BF00023A0070083A7C180944383A7C180370740
:100C000001FF7D17758F98C38327C4FB8A071307DD
:100C100004FDBA9783A707F6E3C707FA8327C4FB47
:100C20008507232EF4FA0327C4FB8D47E3DBE7F4A3
:100C300083A7018123A00700010029450921AA8774
:100C4000EDDF13054006EFF02FD5B707008003A7AF
:100C5000C779930704F31146BA853E85A12183A77E
:100C6000C180944383A7C180370701FF7D17758F2B
:100C700098C383A70181094798C3232004FC69A86E
:100C8000B707008083A7877923A007000100B70773
:100C9000008083A787799C43E3CB07FEB7070080DA
:100CA00083A7C7799843832704FC8A07930604FD2A
:100CB000B69723A0E7F691A0B707008083A7C7796E
:100CC0009843832704FC8A07930604FDB69723A064
:100CD000E7F62945AD26AA878DE3B707008083A7ED
:100CE000077A23A0070083A7C180944383A7C1800C
:100CF000370701FF7D17758F98C3832704FC8A0788
:100D0000130704FDBA9783A707F6E3C707FA8327FB
:100D100004FC85072320F4FC032704FC8D47E3D162
:100D2000E7F683A7018123A007000327C4F39307F5
:100D30002004631BF702832704F313970701418301
:100D4000832744F3C207C1839E07C207C183BA97B2
:100D5000C207C183231DF4FA930704F313060002AC
:100D600081453E85DD2E19A0814785AC2945C12CE2
:100D7000AA87EDDF13054006EFF00FC283A7C180FD
:100D8000944383A7C180370701FF7D17758F98C3F0
:100D900083A70181094798C3232204FC71A801009D
:100DA000B707008083A787799C43E3CB07FEB7078B
:100DB000008083A78779032744FC98C3B707008086
:100DC00083A7C7799843832744FC8A07930604FDC9
:100DD000B69723A0E7F691A0B707008083A7C7794D
:100DE0009843832744FC8A07930604FDB69723A003
:100DF000E7F62945A924AA878DE3B707008083A7D2
:100E0000077A23A0070083A7C180944383A7C180EA
:100E1000370701FF7D17758F98C3832744FC8A0726
:100E2000130704FDBA9783A707F6E3C707FA8327DA
:100E300044FC85072322F4FC8317A4FB032744FC0E
:100E4000E34FF7F483A7018123A007008317A4FBD6
:100E500085070A87BA841387F7FF232AE4FA3E87B7
:100E60003A8C814C1357DC01939A3C00B36A5701CA
:100E7000131A3C003E873A8B814B1357DB01939941
:100E80003B00B369370113193B00BD0791839207FB
:100E90003301F1408A87938707002328F4FA032758
:100EA00004FB8317A4FB85073E8681453A8575249C
:100EB000232404FC3DA0832784FC8A07130704FD38
:100EC000BA9783A707F613F7F70F832604FB832748
:100ED00084FCB6972380E700832784FC85072324BE
:100EE000F4FC8317A4FB032784FCE346F7FC831779
:100EF000A4FBF117032704FBBA9703C70700930766
:100F0000C0046315F7068317A4FBF517032704FB3A
:100F1000BA9703C70700930750046319F7048317B0
:100F2000A4FBF917032704FBBA9703C7070093072D
:100F30004004631DF7028317A4FBFD17032704FB7E
:100F4000BA9783C7070013077004638DE700130780
:100F500020056387E700130720046387E70039A0B3
:100F600089479DA88D478DA89147BDA0232604FCE5
:100F7000A1A0032704FB8327C4FCBA9703C707007B
:100F80009307F0046315F7028327C4FC8507032742
:100F900004FBBA9703C707009307B0046319F7006F
:100FA000B76701201385076D952E854735A08327E8
:100FB000C4FC85072326F4FC8317A4FBFD17032735
:100FC000C4FCE348F7FA832704FBBE85B76701201A
:100FD0001385076E3D24814726813E85130104F267
:100FE000FE406E44DE444E49BE492E4A9E4A0E4B98
:100FF000FA5B6A5CDA5C2D618280011106CE22CC3C
:101000000010AA87A307F4FE83A741819843834772
:10101000F4FE8546B397F600BE8683A74181558FBF
:1010200098C383A741819C43BE85B7670120138580
:10103000076FC12A0100F240624405618280797124
:1010400022D60018AA87A30FF4FC8347F4FD0547B6
:10105000B317F7002326F4FE83A7818198438327E3
:10106000C4FE7D8F8347F4FDB317F7002324F4FEFD
:10107000832784FE3E853254456182809387C181F7
:10108000884301118A8506CE452CFD576309F5007A
:10109000924702453E95A2473E95B2473E95F240A3
:1010A00005618280B3C7A5008D8B3307C50081E73A
:1010B0008D4763EEC700AA876370E50A83C6050003
:1010C00085078505A38FD7FEE3EAE7FE8280937646
:1010D0003500AA8791CA83C6050085078505A38FB9
:1010E000D7FE93F63700FDB79376C7FF138606FE4B
:1010F00063F0C70683A3050083A2450083AF850084
:1011000003AFC50083AE050103AE450103A385010E
:1011100083A8C5019385450223A0770003A8C5FFD6
:1011200023A2570023A4F70123A6E70123A8D70190
:1011300023AAC70123AC670023AE17019387470298
:1011400023AE07FF75B790419107910523AEC7FE07
:10115000E3EBD7FEE3E4E7F682803D432A8763733F
:10116000C3029377F700BDEFADE5937606FF3D8AA6
:10117000BA960CC34CC30CC74CC74107E36BD7FEF0
:1011800011E28280B306C3408A0697020000969659
:101190006780A6002307B700A306B7002306B700A1
:1011A000A305B7002305B700A304B7002304B700C5
:1011B000A303B7002303B700A302B7002302B700BD
:1011C000A301B7002301B700A300B7002300B700B5
:1011D000828093F5F50F93968500D58D9396050142
:1011E000D58D61B793962700970200009696868268
:1011F000E78086FA9680C1171D8F3E96E374C3F888
:10120000A5B739713EDA2ED232D436D63AD842DC7E
:1012100046DE9387C18122CC804326CA06CEAA84AB
:1012200009C41C4C99E32285352B0C4454102686A6
:10123000228536C6EF009018F2406244D244216104
:101240008280011126CA4AC806CE22CC4EC652C49C
:10125000AA842E8901C51C4D91E329239C4C80440E
:1012600099E326850123975700009387E74C631C79
:10127000F402C0408357C400A18BB1C71C48A1C76A
:10128000FD59294A1C4483450900FD17B1E91CC4D6
:1012900063DE07062286A94526855520FD5763088B
:1012A000F502294535A0975700009387E74A631454
:1012B000F4008044C1B7975700009387E745E31BCC
:1012C000F4FAC04445BFA2852685152A55D97D5517
:1012D000F2406244D2444249B249224A05618280C6
:1012E0001CC4050963D70700184C63CBE70063896A
:1012F00045011C401387170018C02380B70059B759
:10130000228626852D28E31F35F7D1B71C40138789
:10131000170018C029472380E70061B79387C18170
:10132000AA85884339BFAA87850703C7F7FF6DFFE2
:101330003385A7407D1582802E856F40204E011198
:1013400022CC26CA4AC806CE4EC6AA842E8932842A
:1013500001C51C4D91E33921975700009387C73D84
:101360006319F406C0401C4C1CC48357C400A18BF5
:10137000C9C31C48BDCF1C4808409379F90F1379A5
:10138000F90F1D8D5C486346F500A2852685652C06
:101390002DE51C440505FD171CC41C4013871700D0
:1013A00018C0238037015C486389A7008357C400B5
:1013B000858B81CBA9476316F900A2852685612418
:1013C0000DEDF24062444A85D2444249B24905617A
:1013D000828097570000938727386314F400804475
:1013E00059B79757000093872733E31EF4F6C0449C
:1013F0009DBFA285268521203DDD7D59D9B74111AC
:101400009387C18126C2844322C44AC006C62A8962
:101410002E8489C49C4C99E32685A9269757000001
:1014200093878731631CF402C0400317C4009317ED
:101430000701C18393F68700B5EE93F607019DEE91
:10144000A5472320F900136707042316E4007D5500
:10145000B2402244924402494101828097570000E1
:101460009387872F6314F4008044C1B79757000017
:101470009387872AE31BF4FAC04445BF918B8DC73D
:101480004C5889C9930744046384F5004A85252B89
:10149000232A04028357C4002322040093F7B7FDD4
:1014A0002316F4001C481CC08357C40093E7870030
:1014B0002316F4001C4881EF8357C4001307002053
:1014C00093F707286385E700A2854A85B9298357E2
:1014D000C40013F7170005C75C4823240400B307B2
:1014E000F0401CCC1C480145A5F78317C40013F736
:1014F000070839DF93E707042316F40089BF898BB7
:10150000014791E3584818C4F1BF83D7C5000111C2
:1015100022CC26CA06CE4AC84EC613F78700AA8434
:101520002E8471EFD841634DE000B841634AE0007A
:101530000145F2406244D2444249B2490561828089
:1015400058547DD703A904009396370123A00400C3
:1015500063DD060670488357C400918B99C75C40D1
:101560001D8E5C5899C33C401D8E5C540C508146C6
:1015700026858297FD570357C400631DF5009440EC
:10158000F54763E8D706B70740208507B3D7D700EC
:10159000858BA5C31C48232204001CC09317370168
:1015A00063D80700FD576314F5009C4091E368C8B9
:1015B0004C5823A02401ADDD930744046384F50057
:1015C00026851121232A0402A5B70C500146854621
:1015D00026850297FD572A86E31FF5F69C40A5DF76
:1015E00075476385E70059476394E70423A0240106
:1015F00081B7136707042316E4007D551DBF83A937
:101600000501E38709F203A905008D8B23A03501AD
:1016100033093941014791E3D84918C4E35A20F10D
:101620001C540C50CA864E86268582976349A000BA
:101630008357C40093E707042316F4007DBFAA99DB
:101640003309A940E1BF9C49B9CF011122CC06CE94
:101650002A8411C51C4D81E72EC62922B245975711
:1016600000009387670D639BF5004C408397C5008E
:1016700095C722856244F240056141BD975700003D
:101680009387870D6394F5000C44CDB797570000FE
:1016900093878708E39CF5FC4C44C9BFF240624441
:1016A00001450561828001458280411122C406C640
:1016B0002A842316B5002317C50023200500232202
:1016C0000500232405002322050623280500232ADC
:1016D0000500232C0500214681451305C505EFF0C3
:1016E000DFA7970700009387E7795CD09707000092
:1016F0009387477C1CD497170000938787805CD41E
:10170000971700009387478300D01CD8B24022442B
:101710004101828097050000938525F3A9A241111C
:1017200026C2130680069384F5FFB384C4024AC020
:101730002E8922C406C693854407252E2A8401CD0E
:101740002320050023222501310508C413868406C1
:101750008145EFF09FA02285B24022449244024985
:10176000410182801C4DADE3411106C622C497079A
:101770000000938767FA1CD5938701829C4323243A
:10178000050423260504232805046314F500854772
:101790001CCD2A841D2848C02285052808C422851E
:1017A0002D2048C44840014691450137084405466C
:1017B000A545E53D48440946C945C53D85471CCC7E
:1017C000B24022444101828082804111938701828C
:1017D00026C284434AC006C69C4C22C42A8999E387
:1017E00026854937938484048044DC40FD1763D602
:1017F00007009C40B9CF8440C5BF0317C40039E738
:10180000C177850723220406232004002322040035
:10181000232404005CC423280400232A0400232C6E
:101820000400214681451305C405EFF01F93232AC8
:101830000402232C04022324040423260404228506
:10184000B24022449244024941018280130484063A
:1018500071BF91454A85E13588C051FDB1472320CC
:10186000F9000144E9BF797122D44AD052CC56CA5A
:101870005AC85EC606D626D24ECE2A8AAE8A13042F
:1018800085040149054BFD5B09ECB25022544A85A1
:1018900092540259F249624AD24A424BB24B4561D4
:1018A0008280044483294400FD1963D40900004068
:1018B000E1BF83D7C400637BFB008397E4006387A9
:1018C0007701A6855285829A3369A900938484069C
:1018D000E1BF1971A6DAAE848395E500A2DC86DE4D
:1018E000328463DC050083D7C40023A0060093F78D
:1018F00007089DE39307004015A0300836C6512D18
:10190000B246E34205FE7247BD67F98F7977BA9711
:1019100093B717009CC2F9BF930700041CC0F65090
:101920006654D65401450961828083D7C5000111F0
:1019300022CC06CE26CA4AC8898B2E8489CF93072B
:1019400074041CC01CC885475CC8F2406244D24481
:1019500042490561828074003000AA849D3FA245FF
:101960002A892685392201ED8317C40013F7072041
:1019700069FFF19B93E727002316F400C9B7970787
:101980000000938767D99CD48357C40008C008C857
:1019900093E707082316F400A2475CC8B24789CF33
:1019A0008315E4002685212D01C98357C400F19BCE
:1019B00093E717002316F4008357C4003369F90036
:1019C0002316240159B7CDC583A7C5FF411122C4F1
:1019D00006C626C21384C5FF63D307003E94AA84BB
:1019E000812D97F7FE5F9387E7E29C4389EF2322DF
:1019F000040097F7FE5F23AF87E02244B2402685BC
:101A0000924441013DA5637EF40014403307D400A5
:101A10006396E7009843DC43369718C05CC0D1BF9B
:101A2000BA87D84319C3E37DE4FE94433386D700D5
:101A3000631F86001040B29694C33386D700E31E1E
:101A4000C7FA10435843B29694C3D8C37DB76375A1
:101A5000C400B1479CC055B71040B306C40063161C
:101A6000D70014435843B29614C058C0C0C371B7CE
:101A70008280011126CA93843500F19806CE22CCCB
:101A80004AC84EC6A104B14763F7F404B14463E603
:101A9000B4042A89712B97F7FE5F9387A7D79843E1
:101AA0003A8431E497F7FE5F938707D79C4381EB35
:101AB00081454A854D2697F7FE5F23AFA7D4A685BB
:101AC0004A85512EFD5963193507B1472320F90086
:101AD0004A85852329A0E3DC04FAB1471CC10145EE
:101AE000F2406244D2444249B249056182801C40BE
:101AF000858F63C00704AD4663F6F6001CC03E94B4
:101B000004C001A85C406314870217F7FE5F23231B
:101B1000F7D04A85392B1305B40093074400619927
:101B20003307F54055DF3A94898F1CC055BF5CC31D
:101B3000CDB722874040B5B7130435007198E30153
:101B400085FCB305A4404A853926E31B35FBB5BFA8
:101B50001C46FD171CC663DA0700184E63C5E70074
:101B6000A9476394F5006FF08FFD1C422E85138703
:101B7000170018C22380B7008280011122CC26CA28
:101B80004AC84EC652C406CE2A89AE893284B304EE
:101B9000D6007D5A63149400014509A883450400CA
:101BA0004E864A8575370504E31645FFF2406244C8
:101BB000D2444249B249224A05618280357122CD20
:101BC00026CB4AC94EC706CF52C556C35AC1DEDE20
:101BD000E2DCE6DAAA89AE843289368409C51C4D76
:101BE00099E3EFF03FB8975700009387E7B4639B02
:101BF000F40C83A4490083D7C400A18BF5C79C488B
:101C0000E5C793070002A304F1029307000302D281
:101C10002305F10222C6930B5002975A0000938AC3
:101C2000AAB5054C294B4A848347040099C36390A5
:101C3000770FB30C2441638D0C00E6864A86A68597
:101C40004E85253FFD576306F51E9256E69636D221
:101C500083470400638F071CFD571309140002C853
:101C600002CE3ECA02CCA309010482D483450900F6
:101C7000154656854D2613041900C24759E913F736
:101C8000070109C713070002A309E10413F787003E
:101C900009C71307B002A309E1048346090013072B
:101CA000A0026380E608F2474A848146254603473E
:101CB000040093051400130707FD6379E60AB5CA0B
:101CC0003ECE85A897570000938707A96395F40037
:101CD00083A489000DB7975700009387E7A3E39C7F
:101CE000F4F083A4C90001BFA6854E85EFF02FF163
:101CF00009D97D55FA406A44DA444A49BA492A4A20
:101D00009A4A0A4BF65B665CD65C0D6182800504DC
:101D100021BF330555413315AC00C98F3EC8228918
:101D2000B1B7324793064700184336C663490702E6
:101D30003ACE034704009307E002631FF70403470A
:101D400014009307A002631BF702B247090413872C
:101D500047009C433AC663C107023ECA35A8330711
:101D6000E04093E727003ACE3EC8E1B7B387670368
:101D700085462E84BA9725BFFD57C5B7050402CA0C
:101D80008146814725460347040093051400130745
:101D900007FD6376E606F1F2834504000D4617550C
:101DA00000001305E59D852C11CD97570000938702
:101DB000279D1D8D93070004B397A7004245050496
:101DC0005D8D2AC883450400194617550000130588
:101DD000659B130914002304B102352C3DC197E71C
:101DE000FEDF9387272295E74247B2471377071014
:101DF00009CF91073EC69257D2973ED22DB5B387F1
:101E0000670385462E84BA97BDBF9D07E19BA10756
:101E1000D5B7780097060000938666D626860C080C
:101E20004E8597000000E7000000FD572A8AE31462
:101E3000F5FC83D7C40093F70704E39C07EA125527
:101E400055BD780097060000938666D326860C0859
:101E50004E85FD24D9BF411122C42A842E8523A694
:101E6000019206C6EF301016FD576317F5009387F1
:101E7000C1929C4391C31CC0B24022444101828064
:101E8000411122C42E848395E50006C6992B63492F
:101E900005007C48AA977CC8B24022444101828058
:101EA0008357C4007D777D17F98F2316F400EDB7B3
:101EB00083D7C500011122CC26CA4AC84EC606CE19
:101EC00093F70710AA842E843289B68991C7839527
:101ED000E50089460146092A8357C4007D777D17AE
:101EE000F98F2316F4008315E4006244F240CE8695
:101EF0004A86B24942492685D24405613DA841112E
:101F000022C42E848395E50006C6F928FD570357A1
:101F1000C400631BF500FD77FD17F98F2316F4004D
:101F2000B2402244410182808567D98F2316F40094
:101F300068C8FDB78395E50005A8411122C42A842D
:101F40002E85B285368623A6019206C6EF30F02391
:101F5000FD576317F5009387C1929C4391C31CC042
:101F6000B240224441018280411122C42A842E853C
:101F700023A6019206C6EF302079FD576317F500BE
:101F80009387C1929C4391C31CC0B240224441013B
:101F90008280411122C42A842E85B28523A6019213
:101FA00006C6EF308078FD576317F5009387C1921E
:101FB0009C4391C31CC0B240224441018280411124
:101FC00022C42A842E8523A6019206C6EF304078CB
:101FD000FD576317F5009387C1929C4391C31CC0C2
:101FE000B240224441018280411122C42A842E85BC
:101FF000B285368623A6019206C6EF306077FD577C
:102000006317F5009387C1929C4391C31CC0B240F3
:1020100022444101828093F5F50F2A966314C5008E
:102020000145828083470500E38DB7FE0505FDB7B6
:1020300082808280797156CA9C49BA8A984522D496
:1020400026D24ECE52CC06D64AD05AC85EC6AA89EF
:102050002E84B284368A63D3E700BA879CC00347D4
:10206000340419C385079CC01C4093F7070281C73D
:102070009C4089079CC00329040013796900631AF6
:102080000900130B9401FD5B5C449840998F634CED
:10209000F9041C408346340493F70702B336D0009A
:1020A000A5EB13063404D2854E85829AFD5763034F
:1020B000F5041C4011469840998B54448144639721
:1020C000C700B384E64063D3040081441C4418482D
:1020D0006354F700998FBE94014969047D5B63984E
:1020E0002405014509A885465A86D2854E85829ADF
:1020F000631E75017D55B250225492540259F24923
:10210000624AD24A424BB24B456182800509ADBF5B
:102110003307D40013060003A301C7040347540484
:1021200093871600A2978906A381E7049DBF854681
:102130002286D2854E85829AE30E65FB050945B756
:10214000797122D426D24AD04ECE06D652CC56CA67
:102150005AC8B68983C685019307E0063289AA84E6
:102160002E84138635046380F61E63E2D706930738
:1021700030066382F60A63EDD700638A061E930772
:1021800080056386F616930A24042301D40469A803
:10219000930740066386F60093079006E395F6FEE4
:1021A0001C40084393F6070893054500C1C21C4133
:1021B0000CC363D807001307D002B307F040A30194
:1021C000E404974600009386665C294765A0930760
:1021D00030076382F61A63EFD7009307F006638F28
:1021E000F60493070007E390F6FA9C4193E7070291
:1021F0009CC109A8930750076382F60493078007E0
:10220000E393F6F893078007A302F40497460000CF
:1022100093860659DDA01C43938A250493864700C4
:102220009C4314C32381F5048547ADA293F60704AC
:102230001C410CC3BDDEC207C187A5BF0C401C43B7
:1022400013F80508138547006305080008C39C437D
:1022500039A093F5050408C3FDD983D707001307F8
:10226000F006638AE60C97460000938626522947BB
:10227000A30104044C400CC463C5050008406D99DB
:1022800008C099E3B28A91CDB28AB3F5E702FD1A8C
:10229000B69583C505002380BA00B3D5E70263F283
:1022A000E70AA147631EF7001C40858B91CB58407D
:1022B0001C4863C7E70093070003A38FFAFEFD1ACB
:1022C0003306564110C84E87CA867000A2852685FF
:1022D00095337D5A6314450D7D55B2502254925466
:1022E0000259F249624AD24A424B45618280A38236
:1022F000D50497460000938666490C40084313F8BE
:1023000005081C4111056300080208C313F71500F6
:1023100001C793E505020CC04147B9FB0C4093F59A
:10232000F5FD0CC0B1B713F8050408C3E30008FEBF
:10233000C207C183E1BF9746000093862645214727
:1023400005BFAE8799B794411C43CC4913F80608E2
:10235000138547006306080008C39C438CC301A88B
:1023600008C393F606049C43F5DA2390B7002328AC
:102370000400B28A89BF1C43D0418145938647003F
:1023800014C383AA07005685793101C53305554129
:1023900048C05C401CC8A301040435B714485686E5
:1023A000CA8526858299E30945F31C40898B8DE710
:1023B000B2474844E353F5F23E8505B78546568655
:1023C000CA8526858299E30965F1050A5C4432478E
:1023D000998FE345FAFEE9BF014A930A94017D5BB8
:1023E000F5B7411122C42A842E85B285368623A6EC
:1023F000019206C6EF30603AFD576317F5009387E8
:10240000C1929C4391C31CC0B240224441018280CE
:10241000F322203473231034F3233034D5BF011159
:1024200006CE22CC00102326A4FE2324B4FE83274C
:10243000C4FE99E3854739A88327C4FE9C4394478B
:10244000832784FE0547B317F700BE850325C4FE26
:102450008296AA873E85F24062440561828001111E
:1024600006CE22CC00102326A4FE2324B4FE232271
:10247000C4FE8327C4FE99E3854789A0832744FED1
:1024800085E38327C4FE9C43944B832784FE054742
:10249000B317F700BE850325C4FE8296AA8739A824
:1024A0008327C4FE9C43D447832784FE0547B31784
:1024B000F700BE850325C4FE8296AA873E85F240BA
:1024C000624405618280011122CE00102326A4FE01
:1024D0000327C4FE854763D4E700814701A803278B
:1024E000C4FE0A0793878182BA979C433E85724453
:1024F00005618280011106CE22CC00102326A4FEA5
:102500002324B4FE8327C4FE9C43DC47832584FE3A
:102510000325C4FE8297AA873E85F2406244056186
:102520008280011122CE00102326A4FE8327C4FE40
:102530006354F000814701A80327C4FE0A0793876C
:10254000C182BA979C433E85724405618280011125
:1025500022CE00102326A4FE0327C4FE9387018306
:102560006315F700B707000211A081473E8572444A
:1025700005618280011122CE00102326A4FE0327CC
:10258000C4FE938701836314F700894711A0814734
:102590003E85724405618280011122CE00102326FF
:1025A000A4FE2324B4FE832784FE91E7B7070080AE
:1025B0009387070A21A8032784FE85476317F7003E
:1025C000B70700809387070A11A081473E857244B0
:1025D00005618280011122CE00102326A4FE23244F
:1025E000B4FE832784FE99E38D4709A8032784FE60
:1025F00085476314F7009D4711A081473E857244CB
:10260000056182805D7186C6A2C4CAC2CEC052DE98
:1026100056DC5ADA5ED862D666D48008232EA4FA35
:102620008327C4FB3E8525372326A4FC0327C4FC4F
:10263000B167F117BA979C432324F4FC0327C4FC29
:10264000B167E117BA979C432322F4FC0327C4FC2B
:10265000B167F117BA979C43032784FCE318F7FC92
:10266000832784FC3E8C814C93190C0001498327FD
:1026700044FC3E8A814A336B4901B3EB5901DA8746
:102680005E883E85C285B640264416498649725A00
:10269000E25A525BC25B325CA25C616182807971FA
:1026A00006D622D44AD24ED00018232EA4FC232CC6
:1026B000B4FC2328C4FC232AD4FC8327C4FD23268E
:1026C000F4FE8327C4FE3E8559352324A4FE8327C8
:1026D00084FD8E073E87832784FE3E97916791078E
:1026E000BA973E87FD571CC3832784FD8E073E871C
:1026F000832784FE3E979167BA973E87832704FD20
:102700001CC3832744FD13D907008149832784FD17
:102710008E073E87832784FE3E9791679107BA977D
:102720004A8798C381473E85B25022541259825934
:1027300045618280011106CE22CC0010232604FEC2
:10274000F32740F12326F4FE0325C4FEEF20506456
:102750002324A4FE032584FEEF203061AA873E8552
:10276000F240624405618280397106DE22DC80001D
:102770002326A4FC0325C4FCF53B2324A4FE8327C5
:10278000C4FC2322F4FE832744FEDC43A9EF232666
:1027900004FE81A08325C4FE0325C4FCF53B232051
:1027A000A4FE8325C4FE0325C4FC2D35232EA4FCE2
:1027B000832704FE9C43DC438326C4FC0146832517
:1027C000C4FD032504FE82978327C4FE85072326C4
:1027D000F4FE0327C4FE832784FEE34DF7FA832724
:1027E00044FE0547D8C30100F25062542161828043
:1027F000397106DE22DC80002326A4FC2324B4FCED
:102800002322C4FC2320D4FCFD572326F4FE2324DA
:1028100004FE0D372320A4FE0325C4FCA13B232E78
:10282000A4FC232204FE91A0832544FE0325C4FCBE
:102830005533232CA4FC832544FE0325C4FCA93B6B
:102840002324A4FE032704FE832784FE6318F700D5
:10285000032784FC832784FD6300F702232404FEFE
:10286000832744FE85072322F4FE032744FE8327A3
:10287000C4FDE34BF7FA11A00100832784FE85C352
:10288000832784FE9C43DC43832604FC032644FC0C
:10289000832584FC032584FE82972326A4FE8327B8
:1028A000C4FE3E85F250625421618280397106DE99
:1028B00022DC80002326A4FC2324B4FCFD57232221
:1028C000F4FE832784FCD9C7232604FEA5352320E4
:1028D000A4FE0325C4FCEFF0FFC9232EA4FC23248F
:1028E00004FE99A0832584FE0325C4FCE531232C36
:1028F000A4FC832584FE0325C4FCEFF0FFC9232636
:10290000A4FE032704FE8327C4FE6318F7000327F1
:1029100084FC832784FD6300F702232604FE8327BB
:1029200084FE85072324F4FE032784FE8327C4FD49
:10293000E34AF7FA11A001008327C4FE81CF832761
:10294000C4FE9C439C47832584FC0325C4FE8297D8
:102950002322A4FE01003E85F25062542161828050
:10296000397106DE22DC80002326A4FC2324B4FC7B
:10297000FD572322F4FE832784FCC1CB232604FECB
:10298000553B2320A4FE0325C4FCEFF0BFBE232E3D
:10299000A4FC232404FEA1A0832584FE0325C4FCFB
:1029A000EFF05FC3232CA4FC832584FE0325C4FC25
:1029B000EFF09FBE2326A4FE032704FE8327C4FE58
:1029C0006318F700032784FC832784FD6300F70264
:1029D000232604FE832784FE85072324F4FE032791
:1029E00084FE8327C4FDE349F7FA11A00100832781
:1029F000C4FE81CF8327C4FE9C43DC47832584FC2F
:102A00000325C4FE82972322A4FE01003E85F250D6
:102A1000625421618280797106D622D40018232E57
:102A2000A4FC232CB4FC232AC4FCFD572326F4FE6B
:102A30008327C4FD2324F4FE0325C4FDEFF03FB13A
:102A40002322A4FE032784FD89476309F704032793
:102A500084FD894763C8E700032784FD8547630E2B
:102A6000F700F1A8032784FD8D47630DF7040327C2
:102A700084FD91476309F708D9A0832744FDCDCB96
:102A8000032584FEEFF01FB8AA872E88032744FD94
:102A90001CC323220701232604FE59A8832744FDD3
:102AA000D1CB832744FD9C432320F4FE832704FEDF
:102AB0008A073E87832744FEBA9723A00700232670
:102AC00004FE8DA8832744FDA5CB832744FD9C43AA
:102AD0002320F4FE832704FE8A073E87832744FED3
:102AE000BA973E8785471CC30F008004832704FEE6
:102AF0008A073E87832744FEBA979C432326F4FE29
:102B0000232604FE15A8232604FE832744FD9DC723
:102B1000832744FD9C432320F4FE832704FE8A0779
:102B20003E87832744FEBA979C432326F4FE39A0B0
:102B3000010031A0010021A0010011A001008327A4
:102B4000C4FE3E85B250225445618280011122CEDE
:102B500000102326A4FE0327C4FE938781836314F9
:102B6000F700814711A0FD573E85724405618280C0
:102B7000011122CE00102326A4FE0327C4FE938752
:102B800081836317F700B7470F009387072411A0CD
:102B900081473E85724405618280011122CE00107A
:102BA0002326A4FE0327C4FE938781836317F700BF
:102BB000B70700809387070A11A081473E857244BA
:102BC00005618280011122CE00102326A4FE8327F6
:102BD000C4FE634AF0000327C4FE0A0793874182BC
:102BE000BA979C4311A081473E857244056182805B
:102BF000011122CE0010F32740F12326F4FE832793
:102C0000C4FE3E85724405618280011122CE00100F
:102C1000A147F3A707302326F4FE010072440561A3
:102C20008280011122CE0010A147F3B7073023267E
:102C3000F4FE0100724405618280011122CE001071
:102C4000A147F3A747302326F4FE01007244056133
:102C50008280011122CE0010A147F3B7473023260E
:102C6000F4FE0100724405618280011122CE001041
:102C700093070008F3A747302326F4FE01007244AF
:102C800005618280011122CE001093070008F3B77E
:102C900047302326F4FE0100724405618280011151
:102CA00022CE0010856793870780F3A7473023263D
:102CB000F4FE0100724405618280011122CE0010F1
:102CC000856793870780F3B747302326F4FE01001A
:102CD000724405618280797122D60018232EA4FCEB
:102CE0008327C4FD0547B317F7002326F4FE832787
:102CF000C4FEF3A747302324F4FE0100325445619B
:102D00008280797122D60018232EA4FC8327C4FD6B
:102D10000547B317F7002326F4FE8327C4FEF3B755
:102D200047302324F4FE01003254456182800111B2
:102D300006CE22CC00102326A4FE2324B4FE1305C5
:102D40004006EF20B007011106CE22CC001023264A
:102D5000A4FE2324B4FE1305800CEF203006797105
:102D600006D622D40018232EA4FC232CB4FC49350B
:102D70002A870A0793874182BA979C432326F4FE49
:102D8000F32720342324F4FE8327C4FE95C70325AC
:102D9000C4FE21352322A4FE832784FE93F7F73F48
:102DA000032744FE9387070E8A07BA979C4783251B
:102DB000C4FD0325C4FE82970100B2502254456130
:102DC0008280797106D622D40018232EA4FC232CED
:102DD000B4FC393DAA873E85F5332326A4FE03259E
:102DE000C4FEEF00F0042320A4FE2322B4FE8327B8
:102DF00004FE032844FEA9450146B386B700368584
:102E00003335F5003307C800B307E5003E87B687C2
:102E10003A88BE8542860325C4FEEF0050080100B3
:102E2000B250225445618280000000000000000082
:102E30000000000000000000000000000000000092
:102E40000000000000000000000000000000000082
:102E50000000000000000000000000000000000072
:102E60000000000000000000000000000000000062
:102E70000000000000000000000000000000000052
:102E8000197186DE96DC9ADA9ED8A2D6AAD4AED282
:102E9000B2D0B6CEBACCBECAC2C8C6C6F2C4F6C29A
:102EA000FAC07EDE0001EFF0BFD42A870A079387BD
:102EB0004182BA979C432326F4FAF3272034232433
:102EC000F4FAF32710342322F4FAF32730342320C2
:102ED000F4FAF3275030232EF4F88327C4FAE1C71D
:102EE0000325C4FAEFF07FCB232CA4F8832784FAC0
:102EF00093F7F73F232AF4F8832784FA63D7070868
:102F0000032744F9BD4763D7E7008327C4F993F744
:102F1000F7039DEF832684F9032744F9BA878607D0
:102F2000BA978E07B69783A787092326F4F88326D6
:102F300084F9032744F9BA878607BA978E07B697AC
:102F400083A707098325C4F8032544F98297A1A81C
:102F50008327C4F913F7F70389476316F704F327A8
:102F600070302328F4F8832784F983A7C70D23261C
:102F7000F4F8832704F92324F4F8832784F88325BD
:102F8000C4F8032544F9829739A8032784F98327D5
:102F900044F99387070E8A07BA979C47832544F91B
:102FA0000325C4FA8297F650E6525653C653365458
:102FB000265596550656F6466647D6474648B648BD
:102FC000264E964E064FF25F0961730020300000D6
:102FD00000000000000000000000000000000000F1
:102FE00000000000000000000000000000000000E1
:102FF000000000000000797122D60018232EA4FCE6
:10300000232CB4FCF32750302326F4FE8327C4FE80
:1030100093F707FC2326F4FE832784FD2324F4FE84
:103020000327C4FD8547630AF7048327C4FDA9CF9E
:103030000327C4FD89476308F7000327C4FD8D47B4
:103040006300F70281A8832784FE93E7270073902B
:1030500077308327C4FE93E72700739057301DA86D
:10306000832784FE93E73700739077308327C4FE6D
:1030700093E737007390573031A8832784FE93E796
:1030800017007390573039A0832784FEF19B73900B
:10309000573001000100325445618280011122CE77
:1030A00000102326A4FE8327C4FEF5177147636D25
:1030B000F70013972700B76701209387077DBA971A
:1030C0009C438287854719A0010081473E85724451
:1030D00005618280797106D622D40018232EA4FCC3
:1030E000232CB4FC232AC4FC232604FE8327C4FD1E
:1030F00099E3FD5771A0032784FDFD4763E0E708CE
:10310000832784FD13972700B7770120938747848F
:10311000BA979C438287832744FD81C7EFF0FFAEB7
:10312000B1A8EFF01FB099A8832744FD81C7EFF045
:10313000DFB0A9A0EFF0FFB191A0832744FD81C7C4
:10314000EFF0BFB225A8EFF0FFB30DA8832744FD31
:1031500081C7EFF0DFB41DA0EFF03FB605A08327D5
:1031600044FD99C7832784FD3E85EFF0DFB631A08B
:10317000832784FD3E85EFF0DFB801008327C4FE7E
:103180003E85B250225445618280797122D6001862
:10319000232EA4FC232CB4FC232AC4FC8327C4FDC7
:1031A0002326F4FE032784FDAD4763C2E70283278D
:1031B00044FD91CF0327C4FE832784FD9387070E28
:1031C0008A07BA97032744FD98C7814711A0FD5786
:1031D0003E85325445618280397106DE22DC8000F2
:1031E0002326A4FC8327C4FC2322F4FE832744FE69
:1031F000DC43639E0710FD5773B04730FD5773B033
:103200004734F32710302320F4FE032704FE896798
:10321000F98F99E7032704FEB7070400F98F99C7D0
:10322000FD5773B03730FD5773B02730032704FEC6
:10323000B7070400F98F81C7FD5773B0071823261D
:1032400004FEB9A0832644FE0327C4FEBA8786077E
:10325000BA978E07B69723A80708832644FE03274C
:10326000C4FEBA878607BA978E07B69723AA0708BF
:10327000832644FE0327C4FEBA878607BA978E07C3
:10328000B69723AC07088327C4FE85072326F4FEE0
:103290000327C4FEFD47E3D7E7FA232404FE1DA05D
:1032A000032744FE832784FE9387070E8A07BA9775
:1032B000373701201307E7D298C7832784FE850795
:1032C0002324F4FE032784FEAD47E3DBE7FCB73796
:1032D0000120938507E80145EFF0FFD1F327103077
:1032E000232EF4FC0327C4FDC16793878702F98F5F
:1032F00099CBF3270030232EF4FC0327C4FD896704
:10330000D98F73900730832744FE0547D8C3010047
:10331000F250625421618280797106D622D400185D
:10332000232EA4FC232CB4FC232AC4FC2328D4FC85
:10333000232604FE8327C4FD2324F4FE032584FDF5
:10334000EFF0DFD5AA8799E3D55739A2832744FD4B
:1033500085CF832684FE032784FDBA878607BA9724
:103360008E07B697032744FD23A8E708832684FE2B
:10337000032784FDBA878607BA978E07B697032777
:1033800004FD23ACE708F9A0832784FDF5177147F6
:103390006362F70C13972700B77701209387478C58
:1033A000BA979C438287832684FE032784FDBA87CD
:1033B0008607BA978E07B697373701201307E7D5E8
:1033C00023A8E708832684FE032784FDBA8786079F
:1033D000BA978E07B697032704FD23AAE7089DA88E
:1033E000832684FE032784FDBA878607BA978E0753
:1033F000B69737370120130727DC23A8E708832671
:1034000084FE032784FDBA878607BA978E07B6978E
:10341000032704FD23AAE70835A8832684FE032793
:1034200084FDBA878607BA978E07B697373701208B
:10343000130767D423A8E708832684FE032784FDA7
:10344000BA878607BA978E07B697032704FD23AA83
:10345000E70801008327C4FE3E85B250225445612F
:103460008280011106CE22CC00102326A4FE232444
:10347000B4FE832784FE0546BE850325C4FEEFF017
:103480007FC5AA873E85F2406244056182800111B2
:1034900006CE22CC00102326A4FE2324B4FE8327CC
:1034A00084FE0146BE850325C4FEEFF0BFC2AA8795
:1034B0003E85F240624405618280797106D622D44D
:1034C0000018232EA4FC232CB4FC232AC4FC83273D
:1034D000C4FD2326F4FE832784FD8DEF832744FD5E
:1034E00099EBB7370120938507E8032544FDEFF0FA
:1034F0009FB081470DA0032744FD8547631CF7005B
:103500008327C4FEA107BE85032544FDEFF0BFAEAF
:10351000814711A0FD573E85B250225445618280FB
:10352000797106D622D40018232EA4FC232CB4FCD7
:103530008327C4FD2326F4FE832784FD91EBB73750
:103540000120938507E80145EFF0FFAA814711A00C
:10355000FD573E85B250225445618280011122CE32
:1035600000102326A4FE2324B4FE2322C4FE814798
:103570003E85724405618280397122DE80002326F7
:10358000A4FC01438143232464FE232674FE732597
:1035900000B82322A4FE732500B02320A4FE7325C7
:1035A00000B8232EA4FC832844FE0325C4FD6395A4
:1035B000A802032544FEAA85014613980500814709
:1035C000032604FEB286014733E6D7002324C4FE57
:1035D000B367E8002326F4FE832784FE0328C4FE95
:1035E0003E85C285725421618280797106D622D4CB
:1035F0004AD24ED00018232EA4FC8327C4FD81E7B5
:103600000149814921A80325C4FDEFF06FD6232687
:10361000A4FE8327C4FE3E89FD87BE89CA874E88E3
:103620003E85C285B250225412598259456182802A
:10363000397106DE22DC80002326A4FC8147014884
:10364000232CF4FC232E04FD0325C4FCEFF0EFD45F
:103650002326A4FE8327C4FC2324F4FE8327C4FE70
:103660008DC78327C4FE83A7C7132322F4FE8327B5
:1036700044FE81CF832744FE9C43984F930784FDEB
:103680003E868545032544FE0297832784FD032853
:10369000C4FD3E85C285F2506254216182807971F9
:1036A00006D622D426D20018232EA4FC2328B4FC4C
:1036B000232AC4FCFD572326F4FE0325C4FDEFF0A6
:1036C000CFCD2324A4FE8327C4FD2322F4FE832729
:1036D00084FE8DCF832784FE83A7C7132320F4FEA7
:1036E000832704FE85C7832704FE9C43C44F03251C
:1036F000C4FDEFF0AFC5AA87032604FD832644FD71
:10370000BE85032504FE82942326A4FE8327C4FEDF
:103710003E85B2502254925445618280011122CEDE
:1037200000102326A4FE938701833E857244056121
:103730008280011122CE00102326A4FE9D473E85E3
:10374000724405618280011122CE00102326A4FE5E
:10375000938701833E85724405618280011122CEE8
:1037600000102326A4FE8D473E85724405618280A9
:10377000797106D622D40018232EA4FC232CB4FC85
:10378000FD572326F4FE0325C4FDEFF00FC12324CB
:10379000A4FE8327C4FD2322F4FE832784FE9DC755
:1037A000832784FE83A7C70D2320F4FE832704FE0E
:1037B00091CF832704FE9C43984F930784FD3E8658
:1037C0008D45032504FE02972326A4FE8327C4FE0D
:1037D0003E85B250225445618280797106D622D44A
:1037E0000018232EA4FC232CB4FCFD572326F4FE42
:1037F0000325C4FDEFF06FBA2324A4FE8327C4FD84
:103800002322F4FE832784FE9DC7832784FE83A79B
:10381000C70D2320F4FE832704FE91CF832704FEE7
:103820009C43984F930784FD3E868945032504FEFB
:1038300002972326A4FE8327C4FE3E85B25022545D
:1038400045618280797106D622D40018232EA4FC0B
:10385000232CB4FC232604FE0325C4FDEFF0EFB3B4
:103860002324A4FE8327C4FD2322F4FE832784FEA1
:103870009DC7832784FE83A7C70D2320F4FE8327DB
:1038800004FE91CF832704FE9C43984F930784FD49
:103890003E869145032504FE02972326A4FE832736
:1038A000C4FE3E85B250225445618280011106CE8D
:1038B00022CC00102326A4FE0325C4FEEFF0EFADBA
:1038C000AA873E85F240624405618280797106D6FE
:1038D00022D40018232EA4FC232CB4FC232AC4FCDD
:1038E0000325C4FDEFF06FAB2326A4FE8327C4FE9F
:1038F00099CB032644FD832584FD0325C4FEEFF008
:10390000DF88AA8711A0FD573E85B2502254456139
:103910008280011122CE00102326A4FE2324B4FEAF
:10392000832784FE83D707008D8B99C3914711A00D
:1039300089473E85724405618280797122D60018DC
:10394000232EA4FCF32710342326F4FE8327C4FE81
:103950003E85325445618280011122CE001023261B
:10396000A4FE2324B4FE832784FE7390173481477A
:103970003E85724405618280011122CE001023260B
:10398000A4FE0327C4FEB70700809387874563150D
:10399000F700B707000C11A081473E85724405610E
:1039A0008280011122CE00102326A4FE0327C4FE2C
:1039B000B7070080938787456314F700ED4711A090
:1039C00081473E85724405618280011122CE00103C
:1039D0002326A4FE0327C4FEB707008093878745EC
:1039E0006314F7009D4711A081473E85724405612D
:1039F0008280011122CE00102326A4FE2324B4FECF
:103A0000832784FE91E7B70700809387070A11A8F0
:103A1000832784FE91E7B70700809387070A11A0E8
:103A200081473E85724405618280011122CE0010DB
:103A30002326A4FE2324B4FE832784FE99E3AD4706
:103A400039A0832784FE99E3AD4711A081473E85C5
:103A5000724405618280797106D622D40018232E23
:103A6000A4FC0325C4FD093F2326A4FE0327C4FEAE
:103A7000B70720009107BA979C433E85B250225465
:103A800045618280797106D622D40018232EA4FCC9
:103A9000232CB4FC0325C4FDC5352326A4FE03272F
:103AA000C4FEB70720009107BA973E87832784FD9D
:103AB0001CC30100B250225445618280797106D640
:103AC00022D40018232EA4FC232CB4FC0325C4FD0F
:103AD00065352326A4FE0327C4FEB7072000BA9746
:103AE0003E87832784FD1CC30100B25022544561E8
:103AF0008280797106D622D40018232EA4FC232CB0
:103B0000B4FC232AC4FC0325C4FDBD352326A4FE32
:103B10000325C4FD5D3D2324A4FE832784FE95C3B5
:103B2000832784FE032744FD637DF700832784FDFC
:103B30008A073E878327C4FEBA973E87832744FDC2
:103B40001CC30100B250225445618280797106D6AF
:103B500022D40018232EA4FC232CB4FC232AC4FC5A
:103B6000EFF00F892326A4FE0325C4FDEFF0DFE06C
:103B70002324A4FE832784FD95878A073E87832715
:103B800084FE3E978967BA979C432322F4FE8327DD
:103B900044FD81CF832784FDFD8B0547B317F700D4
:103BA0003E87832744FED98F29A8832784FDFD8B78
:103BB0000547B317F70093C7F7FF3E87832744FEF7
:103BC000F98F032784FD15870A07BA86032784FE29
:103BD000BA96096736971CC30100B250225445615A
:103BE0008280011106CE22CC00102326A4FE2324BD
:103BF000B4FE1305C012EF10701C797106D622D4E2
:103C00000018232EA4FC232CB4FC832784FD232638
:103C1000F4FE0325C4FE81352324A4FE0325C4FE3F
:103C2000EFF03FD82322A4FE832744FE032784FE1F
:103C30006372F7040327C4FE832784FE8A07BA97BA
:103C40009C478DCB0327C4FE832784FE8A07BA973F
:103C500003A88700032684FE8326C4FE032784FE70
:103C6000BA878607BA978E07B69783A78708BE8557
:103C700032850298832584FE0325C4FEEFF09FE081
:103C80000100B250225445618280397106DE22DC87
:103C900080002326A4FC8327C4FC2322F4FE832770
:103CA00044FEDC4363910712232604FE29A2032568
:103CB000C4FCEFF01FCF2320A4FE8325C4FE032500
:103CC000C4FCEFF01FD3232EA4FC8325C4FE0325E0
:103CD000C4FCEFF09FD5232CA4FC8327C4FD9C4398
:103CE0009C430325C4FD8297232404FE8DA0014636
:103CF000832584FE032544FE913D0146832584FEF1
:103D0000032544FEEFF0FFDE032744FE832784FEF5
:103D10008A07BA9723A40700832644FE032784FE5C
:103D2000BA878607BA978E07B69723A20708832615
:103D300044FE032784FEBA878607BA978E07B69794
:103D400023A40708832784FE85072324F4FE032782
:103D500084FE832704FEE34CF7F88145032544FEE7
:103D6000EFF0DFD58327C4FD9C43DC43832644FE6C
:103D70000146832584FD0325C4FD82978327C4FD66
:103D80009C43D843832644FEB74701201386A7BF30
:103D9000832584FD0325C4FD02978327C4FD9C432E
:103DA0009C47832584FD0325C4FD82978327C4FE99
:103DB00085072326F4FE8327C4FEE35AF0EE83270B
:103DC00044FE0547D8C30100F2506254216182804D
:103DD000797106D622D40018232EA4FC232CB4FC1F
:103DE000232AC4FC2328D4FC8327C4FD2326F4FE05
:103DF0000325C4FDEFF0FFBA2A87832784FD63C43F
:103E0000E700FD5751A0832744FD9DCF0946832538
:103E100084FD0325C4FEEFF0DFCD0327C4FE832716
:103E200084FD8A07BA97032744FD98C78326C4FEFA
:103E3000032784FDBA878607BA978E07B6970327AC
:103E400004FD23A4E70881A00546832584FD0325FE
:103E5000C4FEEFF01FCA0327C4FE832784FD8A0730
:103E6000BA9737470120130727BE98C78326C4FE99
:103E7000032784FDBA878607BA978E07B69703276C
:103E800004FD23A2E70881473E85B25022544561D4
:103E90008280797106D622D40018232EA4FC232C0C
:103EA000B4FC8327C4FD2326F4FE0325C4FDEFF0F4
:103EB0005FAF2A87832784FD63C4E700FD5709A805
:103EC0000546832584FD0325C4FEEFF03FC88147E6
:103ED0003E85B250225445618280797106D622D443
:103EE0000018232EA4FC232CB4FC8327C4FD232616
:103EF000F4FE0325C4FDEFF0DFAA2A87832784FDA3
:103F000063C4E700FD5709A80146832584FD032506
:103F1000C4FEEFF0BFC381473E85B25022544561D5
:103F20008280011122CE00102326A4FEB707008054
:103F3000938747073E85724405618280011122CE36
:103F400000102326A4FE938741883E8572440561B4
:103F50008280011122CE00102326A4FE81473E85D7
:103F6000724405618280411122C600089387018650
:103F70003E85324441018280397106DE22DC8000B8
:103F80002326A4FC0325C4FC693F2326A4FE0325A5
:103F9000C4FCC1372324A4FE0325C4FC45372322D7
:103FA000A4FED1372320A4FE832704FE9C4383254F
:103FB00084FE032544FE8297232EA4FC0325C4FE21
:103FC000EF100047AA873E878327C4FD93F7F703C6
:103FD0008507B357F7023E85F25062542161828013
:103FE000011106CE22CC00102326A4FE2324B4FE09
:103FF0000325C4FE5137AA873E85F240624405611D
:104000008280011122CE00102326A4FEB707008073
:10401000938707063E85724405618280011122CE96
:1040200000102326A4FE938741883E8572440561D3
:104030008280011122CE00102326A4FE91473E85E6
:10404000724405618280411122C60008938701866F
:104050003E85324441018280397106DE22DC8000D7
:104060002326A4FC0325C4FC693F2326A4FE0325C4
:10407000C4FCC1372324A4FE0325C4FC45372322F6
:10408000A4FED1372320A4FE832704FE9C4383256E
:1040900084FE032544FE8297232EA4FC0325C4FE40
:1040A000EF100039AA873E85F25062542161828068
:1040B000011106CE22CC00102326A4FE2324B4FE38
:1040C0000325C4FE513FAA873E85F2406244056144
:1040D0008280011122CE00102326A4FEB7070080A3
:1040E000938787753E85724405618280011122CED7
:1040F00000102326A4FEB70700809387C7763E856D
:10410000724405618280011122CE00102326A4FE94
:10411000938741883E85724405618280011122CED9
:1041200000102326A4FEB1473E85724405618280BB
:10413000411122C60008938741883E8532444101DF
:104140008280411122C60008A1473E8532444101C8
:104150008280411122C60008B727F40093870740E8
:104160003E85324441018280411122C60008B78752
:1041700000103E85324441018280411122C6000870
:10418000938701863E85324441018280011122CE0F
:1041900000102326A4FE2324B4FE832784FE984720
:1041A0008327C4FE63E9E700832784FED84783277B
:1041B000C4FE6374F700FD5729A8832784FE984343
:1041C0008327C4FE3307F702832784FEDC43B357FB
:1041D000F7023E85724405618280011106CE22CC31
:1041E0000010853F2326A4FE8327C4FE91C7B7078E
:1041F00000801385077831200100F2406244056198
:104200008280397106DE22DC80002326A4FC83270D
:10421000C4FC3E85EFF09FED2326A4FE1D3F232422
:10422000A4FE05372322A4FE81372320A4FE032702
:1042300004FE832744FEBA97232EF4FC8327C4FC94
:10424000DC4389CB8327C4FCD8438327C4FC9C4729
:104250003E8502978327C4FD9843C167F98F91EB90
:104260008327C4FD9843C177FD177D8F8327C4FD45
:1042700098C38327C4FE91CB8327C4FD9843B70717
:1042800002005D8F8327C4FD98C38327C4FC9C4331
:10429000D8438327C4FC832584FE3E850297832769
:1042A000C4FCDC4789CB8327C4FCD8478327C4FCE4
:1042B0009C4B3E8502970100F2506254216182803E
:1042C0001D7186CEA2CC80102326A4FA0325C4FA41
:1042D000EFF0DFE12326A4FE0325C4FAEFF07FDF31
:1042E0002324A4FE0325C4FAEFF0BFE52322A4FE95
:1042F0000325C4FAEFF0DFE32320A4FE0325C4FA6C
:10430000EFF0DFE1232EA4FC0325C4FAEFF0BFDFBA
:10431000232CA4FCEFF07FE6232AA4FC832744FD92
:104320009C43832544FE032504FE82972328A4FC96
:10433000832744FD9C438325C4FD032584FD829788
:104340002326A4FC032704FDC1677D8FC167637822
:10435000F700032584FEEF10A00DAA87E1A803272C
:1043600004FDB70702007D8FB70702006365F70001
:104370008327C4FE19A0832784FE3E85EF10400BDF
:104380002324A4FC032704FDB70704007D8FB7078F
:1043900004006365F700832784FC69A8832704FD74
:1043A0009D8B85072322F4FC832704FD93F7073FA9
:1043B0009183850786072320F4FC032704FD856786
:1043C000938707C07D8F9307F03F63E4E700FD57B5
:1043D00095A0032704FD8567938707C0F98FA983FC
:1043E0000547B317F700232EF4FA032784FC83272D
:1043F00044FC3347F702832704FC3307F702832783
:10440000C4FBB347F702232CF4FA8327C4FC13F749
:1044100007109307F00F63F5E700832784FB19A8C3
:10442000032784FB8327C4FC93F7F70385078607DC
:10443000B357F7023E85F6406644256182803971A4
:1044400006DE22DC80002326A4FC2324B4FCFD57D6
:104450002326F4FEB707008093C7F7FF2324F4FE5A
:10446000930730042322F4FEADA0832744FE139764
:104470005700B77701209387879BBA97BE8503259E
:10448000C4FCEFF0BFD02320A4FE032704FEFD5799
:10449000630CF702032704FE832784FC1D8F9357C8
:1044A000F7413D8FB307F740232EF4FC0327C4FDEB
:1044B000832784FE635AF700832744FE2326F4FEF5
:1044C0008327C4FD2324F4FE832744FEFD17232203
:1044D000F4FE832744FEE3DA07F88327C4FE3E8513
:1044E000F250625421618280011122CE00102326F5
:1044F000A4FE2324B4FE2322C4FE8327C4FE9C43CF
:1045000013F787FF8327C4FE98C38327C4FE98430D
:10451000832744FE9C4B9D8B5D8F8327C4FE98C3ED
:104520008327C4FE9C4313F7F7C08327C4FE98C3B8
:104530008327C4FE9843832744FEDC4B920793F7FE
:10454000073F5D8F8327C4FE98C38327C4FE98432B
:10455000FD779387F73F7D8F8327C4FE98C383271A
:10456000C4FE9843832744FE9C4F9396A70085671B
:10457000938707C0F58F5D8F8327C4FE98C3832779
:1045800044FEDC4F63DB0702832784FE9C4313E772
:104590000710832784FE98C3832784FE9C4313F768
:1045A00007FC832784FE98C3832784FE9C4313E77C
:1045B0001700832784FE98C32DA8832784FE9C437D
:1045C00013F7F7EF832784FE98C3832784FE9C4369
:1045D00013F707FC832784FE98C3832784FE984340
:1045E000832744FEDC4F93F7F7035D8F832784FE18
:1045F00098C38327C4FE9843B707FCFFFD177D8F40
:104600008327C4FE98C301008327C4FE9C43E3DDD7
:1046100007FE01007244056182805D7186C6A2C4F6
:104620008008232EA4FA232CB4FA0325C4FBEFF050
:10463000FFAB2326A4FE0325C4FBEFF09FA9232490
:10464000A4FE0325C4FBEFF0DFAF2322A4FE032565
:10465000C4FBEFF0BFAC2320A4FEEFF0FFB0232E8D
:10466000A4FC0327C4FD832744FEBA97232CF4FC43
:104670000327C4FD832704FEBA97232AF4FC83276B
:1046800084FD9843C167F98F91CB832784FD9843BC
:10469000C177FD177D8F832784FD98C3832784FD11
:1046A0009843B7070200F98F81C78327C4FE19A07A
:1046B000832784FE3E85EF00B0572328A4FC032700
:1046C00004FDBA878607BA9713D7F7410D8BBA97BF
:1046D00089873E87832784FB63CBE702032704FD9A
:1046E000BA878A07BA9713D7F7410D8BBA9789878C
:1046F0003E87832784FB634CF700832784FD984320
:10470000B70704005D8F832784FD98C381A88325A4
:1047100084FB032504FDEFF09FD22326A4FC03278E
:10472000C4FCFD576303F7028327C4FC13975700AB
:10473000B77701209387879BBA973E86832544FDF0
:10474000032584FDEFF05FDA11A8832784FD9843E9
:10475000B70704005D8F832784FD98C3832784FDFA
:104760009843C1675D8F832784FD98C30325C4FBED
:10477000EFF01FB5AA873E85B6402644616182806E
:10478000011106CE22CC0010EFF0BF9C2326A4FE20
:104790008325C4FEB707008013850778EF00B04B70
:1047A0000100F240624405618280411122C6000886
:1047B000B78700103E85324441018280797106D668
:1047C00022D40018232EA4FC232CB4FCF93FAA8782
:1047D0002326F4FE032784FD8327C4FEBA979C4357
:1047E0003E85B250225445618280797106D622D42A
:1047F0000018232EA4FC232CB4FC232AC4FC7537F8
:10480000AA872326F4FE032784FD8327C4FEBA97D4
:104810003E87832744FD1CC33E85B2502254456128
:104820008280011122CE00102326A4FE0327C4FE9D
:104830009387C1836315F700B727011011A0814743
:104840003E85724405618280797106D622D40018B3
:10485000232EA4FC232CB4FC0325C4FDD937AA873E
:104860002326F4FE8327C4FE91079C43032784FD7F
:104870001347F7FFBA860327C4FE1107F58F1CC341
:1048800081473E85B250225445618280797106D6B7
:1048900022D40018232EA4FC0325C4FD5937AA876F
:1048A0002326F4FE8327C4FEB1079C433E85B25005
:1048B000225445618280797106D622D40018232EB5
:1048C000A4FC232CB4FC0325C4FDEFF09FF5AA87BC
:1048D0002326F4FE8327C4FEA1079843832784FD83
:1048E0008326C4FEA106D98F9CC281473E85B25063
:1048F000225445618280797106D622D40018232E75
:10490000A4FC232CB4FC0325C4FDEFF09FF1AA877F
:104910002326F4FE8327C4FEB1079843832784FD32
:104920008326C4FEB106D98F9CC281473E85B25012
:10493000225445618280797106D622D40018232E34
:10494000A4FC232CB4FC0325C4FDEFF09FEDAA8743
:104950002326F4FE8327C4FEB1079C43032784FD6E
:104960001347F7FFBA860327C4FE3107F58F1CC330
:1049700081473E85B250225445618280797106D6C6
:1049800022D40018232EA4FC232CB4FC0325C4FD40
:10499000EFF03FE9AA872326F4FE8327C4FEB10780
:1049A0009843832784FD8326C4FEB106B98F9CC239
:1049B00081473E85B250225445618280797106D686
:1049C00022D40018232EA4FC232CB4FC232AC4FCDC
:1049D0000325C4FDEFF0FFE4AA872326F4FE832716
:1049E000C4FE9387C7039C43032784FD1347F7FF47
:1049F000BA860327C4FE1307C703F58F1CC383279A
:104A0000C4FE938787039843832744FD8326C4FE0F
:104A100093868603D98F9CC281473E85B25022542B
:104A200045618280011122CE00102326A4FE0327B7
:104A3000C4FE938701846315F700B747011011A0E6
:104A400081473E85724405618280011122CE0010AB
:104A50002326A4FEB7070080938707783E8572441B
:104A600005618280011122CE00102326A4FE9387C7
:104A7000C1833E85724405618280011122CE0010FF
:104A80002326A4FE9307C0033E85724405618280FD
:104A9000011122CE00102326A4FE9307C0033E85F9
:104AA000724405618280797106D622D40018232EC3
:104AB000A4FC232CB4FC0325C4FDEFF0BFF6AA87A9
:104AC0002326F4FE8327C4FE938707049C43032711
:104AD000C4FE13070704F19B1CC3832784FD9C437A
:104AE00005476384E70289C70947638DE70281A808
:104AF0008327C4FE93870704BE868327C4FE93875B
:104B000007043E879C421CC32DA88327C4FE9387BD
:104B100007049C430327C4FE1307070493E7170009
:104B20001CC305A08327C4FE938707049C43032767
:104B3000C4FE1307070493E727001CC319A0FD5701
:104B400085A2832784FD83C74700858B93F7F70FE2
:104B500081CF8327C4FE91079C430327C4FE11071E
:104B600093E717001CC311A88327C4FE91079C4339
:104B70000327C4FE1107F99B1CC3832784FD83C749
:104B80004700898B93F7F70F81CF8327C4FE9107E6
:104B90009C430327C4FE110793E727001CC311A8F9
:104BA0008327C4FE91079C430327C4FE1107F59B8E
:104BB0001CC3832784FD83C74700918B93F7F70FAE
:104BC00091CF8327C4FE938707049C430327C4FE29
:104BD0001307070493E747001CC321A88327C4FEDB
:104BE000938707049C430327C4FE13070704ED9B28
:104BF0001CC38327C4FE938707049C430327C4FE7A
:104C000013070704DD9B1CC3832784FD83C747006C
:104C1000A18B93F7F70F99C78327C4FED10723A071
:104C2000070039A08327C4FED1073E8785471CC3F0
:104C30008327C4FE938707049843B7070F007D8F2F
:104C4000B7070800630FF7028327C4FE93870704A2
:104C500098438327C4FE93870704BE86B707F1FFF6
:104C6000FD17F98F9CC28327C4FE938707049843DE
:104C70008327C4FE93870704BE86B7070800D98F31
:104C80009CC28327C4FEC1073E87832784FD9C47BF
:104C90001CC38327C4FE9387070623A00700814710
:104CA0003E85B2502254456182805D7186C6A2C4A1
:104CB00080082326A4FC2324B4FC2322C4FC232044
:104CC000D4FC232EE4FA8327C4FC2324F4FE03251A
:104CD000C4FCEFF03FD5AA872322F4FE232004FE74
:104CE000832584FC032584FEEFF0FFDB2320A4FE54
:104CF000832704FE81C7832704FE0DAA832744FE71
:104D0000E1079C43032744FE6107F19B1CC38327F3
:104D100044FEE1079C43032744FE610793E7270015
:104D20001CC3232604FEDDA00100832744FE9387D5
:104D300087049C43E3CB07FE832704FC99CF83279A
:104D4000C4FE032704FCBA97032744FE1307870415
:104D500083C707002300F70039A0832744FE938709
:104D60008704238007000145EF00D065AA862E87BF
:104D700085450146B387B6003E853335D5003308F7
:104D8000C700330705013A88232CF4FC232E04FDC9
:104D900081A00145EF001063AA872E880327C4FD78
:104DA000C286634CD7000327C4FDC2866312D702B4
:104DB000032784FD6363F70021A8832744FEE107EE
:104DC0009C43032744FE6107F19B1CC38547B9A898
:104DD000832744FE9387C7049C43232AF4FC83273C
:104DE00044FDE3C807FA8327C4FB81CF8327C4FEB1
:104DF0000327C4FBBA97032744FD1377F70F2380DB
:104E0000E7008327C4FE85072326F4FE8327C4FE1C
:104E1000032744FCE3EAE7F0832744FEE1079C43D1
:104E2000032744FE6107F19B1CC381473E85B640C2
:104E3000264461618280797122D60018232EA4FC59
:104E40008327C4FD2326F4FE8327C4FEDC433E856E
:104E5000325445618280397106DE22DC80002326CF
:104E6000A4FC2324B4FC0325C4FCEFF0BFBBAA8739
:104E70002326F4FE0325C4FCEFF03FBD2324A4FE4B
:104E80008327C4FC2322F4FE032784FC832744FEEB
:104E9000D8C3832784FEB9CF832784FE9C439C43D9
:104EA000032584FE82972320A4FE832784FC8607A3
:104EB000032704FEB347F702FD17232EF4FC032754
:104EC000C4FD85676344F700FD5735A08327C4FE02
:104ED00094438327C4FE7D77758F98C38327C4FED0
:104EE00094430327C4FD8567FD177D8F8327C4FE88
:104EF000558F98C381473E85F2506254216182806C
:104F0000797106D622D40018232EA4FC0325C4FDF3
:104F1000EFF05FB1AA872326F4FE8327C4FE9387B0
:104F200007059C430327C4FE13070705E19B1CC329
:104F300001008327C4FE938747079C43858BF5DBDD
:104F40000100B250225445618280797106D622D484
:104F50000018232EA4FC8327C4FD2326F4FE032778
:104F6000C4FE8327C4FEDC43BE853A85EFD08FD8CC
:104F70000100B250225445618280397106DE22DC84
:104F800080002326A4FC2324B4FC8327C4FC23260E
:104F9000F4FE0325C4FCEFF05FAB2324A4FE03253D
:104FA000C4FCEFF03FAC2322A4FE832784FE9DC304
:104FB0000326C4FEB7570120938507F0032584FE1E
:104FC000ED290326C4FEB75701209385A7F40325D6
:104FD00084FE192B8327C4FE832584FC3E85EFD0F5
:104FE0006FD1832744FE95CB0325C4FCEFF0FFA8C7
:104FF000AA872320F4FE0325C4FCEFF07FA9AA872B
:10500000232EF4FC832744FE9C439C4F0326C4FDBF
:10501000832504FE032544FE82970100F25062546A
:1050200021618280011122CE00102326A4FE0327D5
:10503000C4FE938781846315F700B737011011A070
:1050400081473E85724405618280011122CE0010A5
:105050002326A4FE0327C4FE938781846317F700E9
:10506000B70700809387874511A081473E8572442A
:1050700005618280011122CE00102326A4FE9547EF
:105080003E85724405618280011122CE00102326E4
:10509000A4FEB7070080938707783E8572440561B8
:1050A0008280011122CE00102326A4FE9387C183A3
:1050B0003E85724405618280011122CE00102326B4
:1050C000A4FEB70703003E8572440561828001118A
:1050D00022CE00102326A4FEB70703003E857244AB
:1050E00005618280011106CE22CC00102326A4FE89
:1050F0000325C4FEEFF07FF5AA873E85F2406244A7
:1051000005618280011106CE22CC00102326A4FE68
:105110000325C4FEEFF01FF6AA87938707023E859A
:10512000F240624405618280797106D622D400186B
:10513000232EA4FCAE87A30DF4FC0325C4FDEFF0E1
:105140007FEEAA872326F4FE01008327C4FE9C433A
:10515000E3CD07FE8327C4FE0347B4FD98C3814710
:105160003E85B250225445618280797106D622D4A0
:105170000018232EA4FC232CB4FCB70700802326A0
:10518000F4FE0325C4FDEFF0FFE9AA872324F4FE13
:1051900039A0832784FE91079C432326F4FE8327AE
:1051A000C4FEE3C807FE8327C4FE13F7F70F832767
:1051B00084FD2380E70081473E85B250225445613B
:1051C0008280797122D60018232EA4FC8327C4FD87
:1051D0002326F4FE8327C4FEDC433E85325445611A
:1051E0008280797106D622D40018232EA4FC232CA9
:1051F000B4FC8327C4FD2326F4FE0325C4FDEFF091
:105200007FE2AA872324F4FE0325C4FDEFF0DFE745
:105210002322A4FE032784FD8327C4FED8C383274B
:1052200044FEB1CB832744FE9C439C43032544FEAC
:1052300082972320A4FE032704FE832784FDB3471F
:10524000F7021387F7FF832784FEE10798C38327BC
:1052500084FEA1079C43032784FE210793E71700E0
:105260001CC3832784FEB1079C43032784FE3107B8
:1052700093E717001CC381473E85B2502254456115
:105280008280397106DE22DC80002326A4FC83277D
:10529000C4FC2326F4FE0325C4FCEFF0BFD8AA8784
:1052A0002324F4FE0325C4FCEFF01FDE2322A4FE1A
:1052B000832784FEA1079843832784FEA107BE8627
:1052C000B707F9FFFD17F98F9CC2832784FEA1075A
:1052D0009843832784FEA107BE86C167D98F9CC2ED
:1052E0000100832784FED1079C43858BFDDB832748
:1052F00084FEA1079C43898B99C3A54711A0A947A8
:105300002320F4FE832744FE9C439C43032544FE54
:105310008297232EA4FC032704FE8327C4FDB30732
:10532000F7023E878327C4FEDC43B357F702232CE2
:10533000F4FC232A04FC39A00100832744FD8507DF
:10534000232AF4FC832744FD032784FDE3C6E7FEFC
:105350000100F250625421618280797106D622D414
:105360000018232EA4FC8327C4FD2326F4FE032764
:10537000C4FE8327C4FEDC43BE853A856D2401004C
:10538000B250225445618280397106DE22DC8000F1
:105390002326A4FC2324B4FC8327C4FC2326F4FE88
:1053A0000325C4FCEFF05FCE2324A4FE0325C4FC38
:1053B000EFF03FCF2322A4FE832784FE9DC3032664
:1053C000C4FCB757012093852728032584FEF520C8
:1053D0000326C4FCB75701209385A735032584FE17
:1053E00021228327C4FE832584FC3E852D2C832720
:1053F00044FE95CB0325C4FCEFF01FCCAA872320E5
:10540000F4FE0325C4FCEFF09FCCAA87232EF4FC06
:10541000832744FE9C439C4F0326C4FD832504FE42
:10542000032544FE82970100F2506254216182807C
:10543000011106CE22CC00102326A4FE8327C4FE31
:105440009C439C430325C4FE8297AA873E85F24075
:10545000624405618280797106D622D40018232E19
:10546000A4FC232CB4FC8327C4FDDC4389CB832715
:10547000C4FDD8438327C4FD9C473E8502978327FC
:10548000C4FD9C43DC43832584FD0325C4FD829732
:105490002326A4FE8327C4FDDC4789CB8327C4FDD4
:1054A000D8478327C4FD9C4B3E8502978327C4FEC3
:1054B0003E85B250225445618280011122CE0010F7
:1054C0002326A4FE2324B4FE2322C4FE8327C4FE85
:1054D000032784FED8C38327C4FE032744FE98C74E
:1054E0000100724405618280011122CE0010232642
:1054F000A4FE2324B4FE2322C4FE8327C4FE032774
:1055000084FED8C78327C4FE032744FE98CB01003E
:10551000724405618280011106CE22CC0010232640
:10552000A4FE8327C4FE9C439C430325C4FE8297AC
:10553000AA872E883E85C285F2406244056182803A
:10554000011106CE22CC00102326A4FE8327C4FE20
:105550009C43DC430325C4FE8297AA872E883E85A0
:10556000C285F240624405618280011106CE22CCE0
:1055700000102326A4FE8327C4FE9C43DC5703258A
:10558000C4FE8297AA873E85F2406244056182800C
:10559000011122CE00102326A4FE8327C4FE634AF5
:1055A000F0000327C4FE0A0793874182BA979C4301
:1055B00011A081473E85724405618280011122CE8F
:1055C00000102326A4FE0100FDBF011106CE22CC4F
:1055D00000102326A4FE2324B4FE8327C4FE9C438C
:1055E0009C43832584FE0325C4FE8297F2406244D7
:1055F00005618280011106CE22CC00102326A4FE74
:10560000AE87A305F4FE8327C4FE9C43D84383479B
:10561000B4FEBE850325C4FE0297AA873E85F240EC
:10562000624405618280011106CE22CC001023263F
:10563000A4FE2324B4FE8327C4FE9C439C4B8325F5
:1056400084FE0325C4FE8297AA873E85F240624409
:1056500005618280011122CE00102326A4FE0327BB
:10566000C4FEB7070080938707066317F700B727C4
:10567000F4009387074025A80327C4FEB7070080DE
:10568000938747076317F700B7A74A049387072054
:1056900039A80327C4FEB7070080938787086317DC
:1056A000F700B757E8019387078011A081473E852F
:1056B000724405618280011106CE22CC001023269F
:1056C000A4FE0325C4FEEFF0FFF8AA873E85F24052
:1056D000624405618280011106CE22CC001023268F
:1056E000A4FE2324B4FE0325C4FEEFF0DFFCAA874A
:1056F0003E85F240624405618280411122C6000865
:105700000100324441018280011106CE22CC0010FA
:105710002326A4FEE12E2A87930780051CC3FD578C
:105720003E85F240624405618280011106CE22CCA2
:1057300000102326A4FE2324B4FE4D2E2A879307AF
:1057400080FA1CC3FD573E85F240624405618280A9
:10575000011122CE00102326A4FE8327C4FEFD17CC
:1057600093B7170093F7F70F3E8572440561828067
:10577000011106CE22CC00102326A4FE2324B4FE61
:105780002322C4FEA5262A87930780051CC3FD5744
:105790003E85F240624405618280011106CE22CC32
:1057A00000102326A4FE2324B4FE2322C4FE3D2E93
:1057B0002A87930780051CC3FD573E85F24062444B
:1057C00005618280797122D60018232EA4FC83A75C
:1057D00001872326F4FE138701D3938701136314F3
:1057E000F700814705A803A701878327C4FD3E97DB
:1057F00093870113637AF70003A701878327C4FD0A
:105800003E9723A8E18629A01387011323A8E186E8
:105810008327C4FE3E853254456182801D7186CE49
:10582000A2CCCACACEC8D2C6D6C4DAC2DEC08010E4
:105830002326A4FAB717008083A6078203A7C1888E
:10584000B687D98F89EFB7170080938707829C4767
:1058500099E78145B717008013850782792A930756
:1058600004FC81453E85512A930784FBBE85014592
:10587000EF00303F232EA4FC8327C4FD99C3FD57BE
:10588000D5A8832704FC032844FC37170080832510
:10589000078203A6C188B386B740368533B5A70013
:1058A0003307C840B307A7403E87B6873A883747D3
:1058B0000F0013070724B306E80201473387E70206
:1058C000BA9637470F00130707243386E702B3B9A8
:1058D000E7023289B3873601BE89032784FCB717F4
:1058E0000080938707829C47B307F7403E8BFD8774
:1058F000BE8BB30769013E873337270133887901AF
:1059000042973A882328F4FC232A04FD832604FDC9
:10591000032744FD832784FB0328C4FBB305F70258
:105920003306D8022E96B385F602B3BAF6022E8A53
:10593000B3075601BE8A37460F0013060624814678
:105940005285D6851D21AA872E883E878327C4FAD3
:1059500098C38327C4FA23A407008327C4FA98476F
:105960008327C4FAD8C78327C4FAD8478327C4FA41
:10597000D8C381473E85F64066445649C649364AF3
:10598000A64A164B864B25618280797106D622D4B1
:105990000018232EA4FC232CB4FC232AC4FC0327C8
:1059A000C4FD85476309F70091222A879307800584
:1059B0001CC3FD5735A8832784FD2324F4FE23262A
:1059C00004FE05A0032784FE8327C4FEBA9783C77D
:1059D00007003E85EF00702D8327C4FE8507232630
:1059E000F4FE0327C4FE832744FDE36DF7FC8147E3
:1059F0003E85B250225445618280397106DE22DC38
:105A00004ADA4ED880002326A4FC2324B4FC930752
:105A100004FEBE850145EF0050202326A4FE832707
:105A2000C4FE99C3FD577DA0930784FDBE85014543
:105A3000EF0030232326A4FE8327C4FE99C3FD571D
:105A400051A8832704FE032844FE832684FD0327F0
:105A5000C4FD3686BA863E85C285012EAA872E8869
:105A60000327C4FC1CC323220701832704FE032849
:105A700044FE832684FD0327C4FD3686BA863E8510
:105A8000C2859925AA872E8837470F001307072458
:105A9000B306E80201473387E702BA9637470F009B
:105AA000130707243386E702B3B9E7023289B387C5
:105AB0003601BE89832784FD0328C4FD3E86C28645
:105AC0004A85CE855D24AA872E883E878327C4FC1D
:105AD00098C781473E85F25062545259C25921619C
