:020000042001D9
:100000009711FF5F938181F9972200009382C25577
:100010007390523093020000638402007350107C8E
:100020001701FFDF130101FE9700FFDF938080FDC2
:10003000638300008290732540F1814501460D20C5
:100040009700FFDF938000FC63830000829097029B
:1000500000009382C2007390523003230000F5BF6A
:1000600006849711FF5F938161F3138101D681426A
:10007000130300406385A2001A918502E5BF137146
:1000800001FF9302000063195508977200009382E4
:1000900062ED1703FF5F1303E3F69703FF5F93839C
:1000A0006377638C6200635A730003A502009102B8
:1000B0002320A3001103E34A73FE9772000093828A
:1000C00062EA1703FF5F1303E3F39703FF5F938372
:1000D00063F3638C6200635A730003A5020091020C
:1000E0002320A3001103E34A73FE1703FF5F1303EA
:1000F00063729383019663577300232003001103F7
:10010000E34D73FE11C202961755000013052553E7
:10011000EF50004FEF500056EF500010F327103013
:100120003707010013078702F98F89CBF3270030C7
:100130000967D98F73900730735030000545977564
:1001400000009385E5CF177600001306A6CF312077
:10015000EF50204CA28082808280411106C2F3229F
:1001600040F1130300006385620073005010F5BF77
:080170008528924041018280C4
:100180009707FFDF938707E899C717550000130506
:10019000054B6F50E0468280797106D622D4001854
:1001A000232EA4FC0327C4FD9307803EB307F70268
:1001B0002326F4FEEF00F07AAA872324F4FE010040
:1001C000EF00307AAA87BE860327C4FE832784FE09
:1001D000BA97E3E7F6FE0100B250225445618280EF
:1001E000411106C622C40008B76701201385C7FE67
:1001F000EF10C0150145EF2040422A8723A2E1926B
:1002000083A7419299E7B76701201385C7FFEF10D5
:10021000E01383A74192D9453E85EF20803583A71F
:100220004192D5453E85EF20C03483A74192CD450C
:100230003E85EF20003483A741920546D9453E858F
:10024000EF20203783A741920546CD453E85EF201C
:10025000403683A741920546D5453E85EF2060355F
:1002600083A70181054798C383A7418123A0070085
:1002700083A781810D4798C32945EF007066B76752
:10028000012013854701552E01002945EF00906993
:10029000AA87E5DFEF001020B76701201385C701AB
:1002A000692E01002945EF00F067AA87E5DFEF001E
:1002B000701EB76701201385C7024126010029453A
:1002C000EF005066AA87E5DFEF00D01C010029454A
:1002D000EF005065AA87E5DFEF00D01B010029453C
:1002E000EF005064AA87E5DFEF00D01A0100B7677E
:1002F0000120138507059126AA87F5FB23A8019401
:10030000B767012013858709EF10400405A0130586
:10031000007D593583A701951387170023A8E19421
:1003200003A701959307400663EFE72C2945EF00EB
:10033000705FAA87E9DFEF00F01501002945EF00A3
:10034000705EAA87E5DFEF00F014B7670120138520
:10035000070AE52423A8019405A01305007D2D3D7F
:1003600083A701951387170023A8E19403A701959C
:100370009307400663EBE7282945EF00B05AAA87A8
:10038000E9DFEF00301123A8019405A01305800CCC
:10039000213583A701951387170023A8E19403A7AC
:1003A00001959307400663E4E7262945EF0090573F
:1003B000AA87E9DFEF00100EB76701201385070B4E
:1003C000AD2CB767012013850710EF00307823A804
:1003D000019405A01305800CC13383A701951387F1
:1003E000170023A8E19403A701959307400663E251
:1003F000E7222945EF001053AA87E9DFEF009009B3
:10040000B76701201385C710EF00507423A801942B
:1004100005A01305800C493383A7019513871700A6
:1004200023A8E19403A701959307400663E5E71E1F
:100430002945EF00304FAA87E9DFEF00B005B76725
:10044000012013858711EF00707023A8019405A087
:100450001305007D913383A701951387170023A807
:10046000E19403A701959307400663E8E71A29453D
:10047000EF00504BAA87E9DFDD26AA870547638393
:10048000E70C05476344F70089CB81A209476381E4
:10049000E70E0D476384E7100DAAB76701201385A7
:1004A0004712EF00B06AEF00E07EAA870D47638E27
:1004B000E70211476381E70609476397E71083A7BF
:1004C00041920146D9453E85EF20A00E83A7419277
:1004D0000546CD453E85EF20C00D83A741920546D8
:1004E000D5453E85EF20E00CA9A883A7419205469B
:1004F000D9453E85EF20E00B83A741920146CD45CB
:100500003E85EF20000B83A741920546D5453E85E9
:10051000EF20200A3DA083A741920546D9453E859C
:10052000EF20200983A741920546CD453E85EF2067
:10053000400883A741920146D5453E85EF206007DC
:10054000010059A083A741920146D9453E85EF207D
:10055000400683A741920546CD453E85EF206005C4
:1005600083A741920546D5453E85EF208004B1A87A
:1005700083A741920546D9453E85EF20800383A796
:1005800041920146CD453E85EF20A00283A74192CE
:100590000546D5453E85EF20C00105A883A74192B9
:1005A0000546D9453E85EF20C00083A74192054608
:1005B000CD453E85EF10F07F83A741920146D5459A
:1005C0003E85EF10107F11A00100B7670120138551
:1005D0000713EF00B0570100B767012013854714D8
:1005E000A928AA87F5FB23A8019401002945EF005B
:1005F0007033AA87E5DFEF00E069AA873E87854769
:100600006314F702E5B1010011A8010001A801007F
:1006100031A0010021A0010011A00100B767012055
:1006200013854715EF00905201002945EF00902FE8
:10063000AA87E5DFEF00006655B9397106DE22DCD6
:1006400080002326A4FC0325C4FCEF00B062AA8727
:100650002320F4FE8947230EF4FCA30E04FC230F91
:1006600004FCA30F04FC832704FE93F7F70F230C6D
:10067000F4FCA30C04FC230D04FC93071004A30D4D
:10068000F4FC0325C4FCEF00704CB707008083A77F
:10069000077A094798C383A7C180944383A7C18081
:1006A000370701FF7D17758F98C3232604FE0DA819
:1006B0008327C4FE130704FFBA9703C7C7FEB70713
:1006C000008083A7877998C3B707008083A7C7797D
:1006D000984323A6E1928327C4FE85072326F4FED0
:1006E0000327C4FE8D47E3D5E7FC010083A7C18142
:1006F0009C43858BE5DFB707008083A7077A23A09B
:1007000007001305401F493CB707008083A7077AFD
:10071000094798C383A7C180944383A7C180370743
:1007200001FF7D17758F98C301002945EF00901FC9
:10073000AA87E5DF232404FE3DA8832784FE130750
:1007400004FFBA9703C787FEB707008083A787799E
:1007500098C3B707008083A7C779984323A6E1927F
:10076000010083A7C1819C43858BE5DF832784FE3D
:1007700085072324F4FE032784FE8D47E3DFE7FA91
:10078000B707008083A7077A23A007001305400658
:10079000EFF09FA023A8019435A02945EFF0DF9F3B
:1007A00083A701959386170023A8D1941307803E51
:1007B000637AF700B76701201385C715EF0010397A
:1007C000854749A82945EF00F015AA87F9D783A7DF
:1007D000C180944383A7C180370701FF7D17758FC0
:1007E00098C3B707008083A7077A094798C32322D5
:1007F00004FE3DA8832744FE0327C4FCBA9703C721
:100800000700B707008083A7877998C3B7070080E0
:1008100083A7C779984323A6E192010083A7C181EA
:100820009C43858BE5DF832744FE85072322F4FE66
:10083000032744FE832704FEE34EF7FAB707008040
:1008400083A7077A23A00700896713850771EFF054
:10085000BF9481473E85F250625421618280797154
:1008600006D622D400182394019213060002814573
:1008700013850193EF00701183A7C180944383A770
:10088000C180370701FF7D17758F98C331A8B7075F
:10089000008083A7C779984323A6E192B767012018
:1008A00013858716EF00902A83A7C1819C4313F715
:1008B00027008947E30DF7FCB707008083A7077A75
:1008C000094798C3232604FE15A80100B707008036
:1008D00083A787799C43E3CB07FE13870182832795
:1008E000C4FEBA9703C70700B707008083A78779BC
:1008F00098C38327C4FE85072326F4FE0327C4FE7E
:100900008D47E3D4E7FC010083A7C1819C43858B1D
:10091000E5DFB707008083A7077A23A007000DA0B3
:10092000B707008083A7C779984323A6E19283A7DE
:10093000C192BE85B76701201385C716EF00700FFF
:1009400083A7C1819C4313F727008947E30AF7FC7B
:1009500001002945EF00007DAA87E5DF1305400669
:10096000EFF09F8383A7C180944383A7C18037079B
:1009700001FF7D17758F98C3B707008083A7077A9B
:10098000094798C3232404FE15A80100B707008077
:1009900083A787799C43E3CB07FEB707008083A733
:1009A000877923A00700010083A7C1819C43858B21
:1009B000E5DF832784FE85072324F4FE032784FED6
:1009C0008D47E3D4E7FCB707008083A7077A23A00D
:1009D000070001002945EF00E074AA87E5DF130551
:1009E0004006EFF06FFBA30304FE91A0B707008061
:1009F00083A7C7799C43834674FE13F7F70F938749
:100A00000193B6972380E700034774FE9387019311
:100A1000BA9783C70700BE85B76701201385C7163D
:100A2000EF003001834774FE8507A303F4FE83A71C
:100A3000C1819C4313F727008947E309F7FA83C76D
:100A400001931397070141839387019383C717008D
:100A5000C207C1839E07C207C183BA97C207C18379
:100A60001397070141872394E19283C70193BE85C1
:100A70009387019383C717003E869387019383C7AB
:100A80002700BE869387019383C737003E87B767E9
:100A9000012013850718EF00C07983978192BE85E6
:100AA000B76701201385471AEF00A0782945EFF0BA
:100AB000AFEE83A7C180944383A7C180370701FFAE
:100AC0007D17758F98C3B707008083A7077A0947FA
:100AD00098C3232004FE25A00100B707008083A748
:100AE00087799C43E3CB07FEB707008083A787790C
:100AF00023A00700832704FE85072320F4FE8397A5
:100B00008192F117032704FEE348F7FC010083A755
:100B1000C1819C43858BE5DF31A8B707008083A79F
:100B2000C779984323A6E192B767012013858716FA
:100B3000EF00D00183A7C1819C4313F727008947A9
:100B4000E30DF7FC232E04FC25A00100B70700806D
:100B500083A787799C43E3CB07FEB707008083A771
:100B6000877923A007008327C4FD8507232EF4FC83
:100B70000327C4FD8D47E3DAE7FC010083A7C181A9
:100B80009C43858BE5DFB707008083A7077A23A006
:100B9000070013060002814513850193EF00E05E14
:100BA000A30304FE91A0B707008083A7C7799C43E5
:100BB000834674FE13F7F70F93870193B69723804C
:100BC000E700034774FE93870193BA9783C7070032
:100BD000BE85B76701201385C716EF008065834780
:100BE00074FE8507A303F4FE83A7C1819C4313F71A
:100BF00027008947E309F7FAB76701209385471B68
:100C000013850193EF002075AA8789EBB767012050
:100C10001385C71BEF008073814785A8B767012044
:100C20009385071D13850193EF00E072AA8789EB76
:100C3000B76701201385871DEF0040718547B1A07C
:100C4000B76701209385C71E13850193EF00A0703D
:100C5000AA8789EBB76701201385471FEF00006F54
:100C6000894725A0B76701209385872013850193C5
:100C7000EF00606EAA8789EBB76701201385072113
:100C8000EF00C06C8D4711A081473E85B2502254C1
:100C900045618280797106D622D40018239401928E
:100CA00013060002814513850193C52183A7C180E6
:100CB000944383A7C180370701FF7D17758F98C3C1
:100CC00025A0B707008083A7C779984323A6E192A0
:100CD00001A8B707008083A7C779984323A6E192AC
:100CE00083A7C192E3C707FE83A7C1819C4313F783
:100CF00027008947E307F7FCB707008083A7077A37
:100D0000094798C3232604FE15A80100B7070080F1
:100D100083A787799C43E3CB07FE13870182832750
:100D2000C4FEBA9703C70700B707008083A7877977
:100D300098C38327C4FE85072326F4FE0327C4FE39
:100D40008D47E3D4E7FC010083A7C1819C43858BD9
:100D5000E5DFB707008083A7077A23A0070025A84F
:100D6000B707008083A7C779984323A6E19201A81B
:100D7000B707008083A7C779984323A6E19283A78A
:100D8000C192E3C707FE83A7C192BE85B767012062
:100D900013854722792983A7C1819C4313F7270034
:100DA0008947E30FF7FA01002945AD2EAA87EDDF49
:100DB00013054006EFF04FBE010083A7C1819C439D
:100DC000858BE5DFB707008083A7077A094798C3BB
:100DD000232404FE15A0B707008083A7877923A0EA
:100DE0000700010083A7C1819C43858BE5DF832732
:100DF00084FE85072324F4FE032784FE8D47E3DC6D
:100E0000E7FCB707008083A7077A23A00700A303A6
:100E100004FE91A0B707008083A7C7799C4383464F
:100E200074FE13F7F70F93870193B6972380E700BB
:100E30000100034774FE93870193BA9783C70700A5
:100E4000BE85B767012013854722E526834774FED8
:100E50008507A303F4FE83A7C1819C4313F72700F2
:100E60008947E309F7FA834774FEBE85B767012017
:100E7000138547237D2E9387019303C7370093077C
:100E800020046317F70483C7019313970701418375
:100E90009387019383C71700C207C1839E07C207C8
:100EA000C183BA97C207C18313970701418723946F
:100EB000E19283978192BE85B767012013858724CD
:100EC0008D2E130600028145138501937D2CA1A070
:100ED000B767012013858725952983C70193BE85B0
:100EE0009387019383C717003E869387019383C737
:100EF0002700BE869387019383C737003E87938779
:100F0000019383C747003765012013054527152640
:100F10009307F00FC9A229453124AA87EDDF1305F5
:100F20004006EFF06FA783A7C180944383A7C180D9
:100F3000370701FF7D17758F98C3B707008083A718
:100F4000077A094798C3232004FE25A00100B707AC
:100F5000008083A787799C43E3CB07FEB707008017
:100F600083A7877923A00700832704FE8507232012
:100F7000F4FE83978192F117032704FEE348F7FC00
:100F8000010083A7C1819C43858BE5DF29A8B707B2
:100F9000008083A7C779984323A6E192B767012011
:100FA00013858716652683A7C1819C4313F7270005
:100FB0008947E30EF7FC232E04FC25A00100B707A8
:100FC000008083A787799C43E3CB07FEB7070080A7
:100FD00083A7877923A007008327C4FD8507232ED5
:100FE000F4FC0327C4FD8D47E3DAE7FC010083A787
:100FF000C1819C43858BE5DFB707008083A7077A13
:1010000023A0070013060002814513850193B52A2A
:10101000A30304FE89A0B707008083A7C7799C4378
:10102000834674FE13F7F70F93870193B6972380D7
:10103000E700034774FE93870193BA9783C70700BD
:10104000BE85B76701201385C716E522834774FE66
:101050008507A303F4FE83A7C1819C4313F72700F0
:101060008947E30AF7FAB76701209385071D1385BF
:101070000193D524AA8781EBB76701201385871DCB
:10108000F124894789A8B76701209385C71E138576
:101090000193D124AA8781EBB76701201385471FED
:1010A00075248D470DA8B767012093858720138588
:1010B00001935524AA8781EBB76701201385072187
:1010C0007124914709A893850193B767012013857F
:1010D000072A852281473E85B2502254456182808D
:1010E000011106CE22CC0010AA87A307F4FE83A725
:1010F000418298438347F4FE8546B397F600BE8647
:1011000083A74182558F98C383A741829C43BE85A4
:10111000B76701201385072B292A0100F24062449A
:1011200005618280797122D60018AA87A30FF4FC8A
:101130008347F4FD0547B317F7002326F4FE83A782
:10114000818298438327C4FE7D8F8347F4FDB317C4
:10115000F7002324F4FE832784FE3E853254456144
:1011600082809387C182884301118A8506CE212E11
:10117000FD576309F500924702453E95A2473E950B
:10118000B2473E95F240056182803D432A876373F2
:10119000C3029377F700BDEFADE5937606FF3D8A76
:1011A000BA960CC34CC30CC74CC74107E36BD7FEC0
:1011B00011E28280B306C3408A0697020000969629
:1011C0006780A6002307B700A306B7002306B70071
:1011D000A305B7002305B700A304B7002304B70095
:1011E000A303B7002303B700A302B7002302B7008D
:1011F000A301B7002301B700A300B7002300B70085
:10120000828093F5F50F93968500D58D9396050111
:10121000D58D61B793962700970200009696868237
:10122000E78086FA9680C1171D8F3E96E374C3F857
:10123000A5B739713EDA2ED232D436D63AD842DC4E
:1012400046DE9387C18222CC804326CA06CEAA847A
:1012500009C41C4C99E32285A92D0C445410268600
:10126000228536C6EF00702AF2406244D2442161E2
:101270008280011126CA4AC806CE22CC4EC652C46C
:10128000AA842E8901C51C4D91E325259C4C8044E0
:1012900099E32685392D975700009387E705631C4E
:1012A000F402C0408357C400A18BB1C71C48A1C73A
:1012B000FD59294A1C4483450900FD17B1E91CC4A6
:1012C00063DE07062286A9452685C922FD576308E5
:1012D000F502294535A0975700009387E70363146B
:1012E000F4008044C1B7975700009387E7FEE31BE3
:1012F000F4FAC04445BFA2852685892C55D97D5571
:10130000F2406244D2444249B249224A0561828095
:101310001CC4050963D70700184C63CBE700638939
:1013200045011C401387170018C02380B70059B728
:1013300022862685A12AE31F35F7D1B71C401387E3
:10134000170018C029472380E70061B79387C1823F
:10135000AA85884339BF3367B500FD530D8B79E704
:10136000B7877F7F9387F7F710419441B372F600F8
:101370003363F600BE92B3E262006397720C6318A7
:10138000D6065041D441B372F6003363F600BE92E4
:10139000B3E262006398720A631BD6041045944559
:1013A000B372F6003363F600BE92B3E2620063915B
:1013B000720A631ED6025045D445B372F6003363F9
:1013C000F600BE92B3E26200639A72086311D6021D
:1013D00010499449B372F6003363F600BE92B3E24B
:1013E0006200639372085105D105E30FD6F6131717
:1013F000060193970601631CF7001357060193D764
:1014000006013305F7409375F50F91E9828041831A
:10141000C1833305F7409375F50F91E1828013770F
:10142000F70F93F7F70F3305F74082800346050067
:1014300083C60500050585056313D60065FA3305E7
:10144000D640828011059105E312D6FE01458280C7
:101450002105A105E31CD6FC014582803105B105BB
:10146000E316D6FC014582804105C105E310D6FC98
:1014700001458280AA87850703C7F7FF6DFF338583
:10148000A7407D1582802E856F30306B011122CCF4
:1014900026CA4AC806CE4EC6AA842E89328401C501
:1014A0001C4D91E33921975700009387E7E46319B6
:1014B000F406C0401C4C1CC48357C400A18BC9C394
:1014C0001C48BDCF1C4808409379F90F1379F90FD8
:1014D0001D8D5C486346F500A2852685652C2DE5AB
:1014E0001C440505FD171CC41C401387170018C0B9
:1014F000238037015C486389A7008357C400858B2C
:1015000081CBA9476316F900A285268561240DEDDC
:10151000F24062444A85D2444249B2490561828020
:1015200097570000938747DF6314F400804459B74E
:1015300097570000938747DAE31EF4F6C0449DBF37
:10154000A285268521203DDD7D59D9B7411193879C
:10155000C18226C2844322C44AC006C62A892E8478
:1015600089C49C4C99E32685A92697570000938748
:10157000A7D8631CF402C0400317C40093170701E7
:10158000C18393F68700B5EE93F607019DEEA5475C
:101590002320F900136707042316E4007D55B240A9
:1015A0002244924402494101828097570000938768
:1015B000A7D66314F4008044C1B7975700009387FF
:1015C000A7D1E31BF4FAC04445BF918B8DC74C589B
:1015D00089C9930744046384F5004A85252B232A8F
:1015E00004028357C4002322040093F7B7FD231697
:1015F000F4001C481CC08357C40093E787002316DF
:10160000F4001C4881EF8357C4001307002093F7B0
:1016100007286385E700A2854A85B9298357C40056
:1016200013F7170005C75C4823240400B307F040F4
:101630001CCC1C480145A5F78317C40013F7070805
:1016400039DF93E707042316F40089BF898B01472C
:1016500091E3584818C4F1BF83D7C500011122CCCB
:1016600026CA06CE4AC84EC613F78700AA842E841F
:1016700071EFD841634DE000B841634AE000014595
:10168000F2406244D2444249B249056182805854D2
:101690007DD703A904009396370123A0040063DDDE
:1016A000060670488357C400918B99C75C401D8E15
:1016B0005C5899C33C401D8E5C540C508146268575
:1016C0008297FD570357C400631DF5009440F5470A
:1016D00063E8D706B70740208507B3D7D700858BC7
:1016E000A5C31C48232204001CC09317370163D8EC
:1016F0000700FD576314F5009C4091E368C84C58FF
:1017000023A02401ADDD930744046384F5002685FE
:101710001121232A0402A5B70C50014685462685CF
:101720000297FD572A86E31FF5F69C40A5DF754713
:101730006385E70059476394E70423A0240181B738
:10174000136707042316E4007D551DBF83A9050117
:10175000E38709F203A905008D8B23A03501330926
:101760003941014791E3D84918C4E35A20F11C5488
:101770000C50CA864E86268582976349A0008357FF
:10178000C40093E707042316F4007DBFAA99330928
:10179000A940E1BF9C49B9CF011122CC06CE2A84D1
:1017A00011C51C4D81E72EC62922B245975700006E
:1017B000938787B4639BF5004C408397C50095C71A
:1017C00022856244F240056141BD9757000093872E
:1017D000A7B46394F5000C44CDB7975700009387E6
:1017E000A7AFE39CF5FC4C44C9BFF24062440145FD
:1017F0000561828001458280411122C406C62A8487
:101800002316B5002317C500232005002322050059
:10181000232405002322050623280500232A05008A
:10182000232C0500214681451305C505EFF0FF95E2
:10183000970700009387E7795CD0970700009387AC
:10184000477C1CD497170000938787805CD4971738
:1018500000009387478300D01CD8B2402244410146
:10186000828097050000938525F3A9A2411126C225
:10187000130680069384F5FFB384C4024AC02E8900
:1018800022C406C693854407252E2A8401CD232031
:10189000050023222501310508C4138684068145ED
:1018A000EFF0BF8E2285B2402244924402494101AA
:1018B00082801C4DADE3411106C622C4970700008B
:1018C000938767FA1CD5938701839C4323240504DF
:1018D00023260504232805046314F50085471CCD41
:1018E0002A841D2848C02285052808C422852D2069
:1018F00048C4484001469145013708440546A5457E
:10190000E53D48440946C945C53D85471CCCB24024
:10191000224441018280828041119387018326C243
:1019200084434AC006C69C4C22C42A8999E3268572
:101930004937938484048044DC40FD1763D6070054
:101940009C40B9CF8440C5BF0317C40039E7C177B5
:1019500085072322040623200400232204002324D5
:1019600004005CC423280400232A0400232C040060
:10197000214681451305C405EFF03F81232A040267
:10198000232C040223240404232604042285B240C9
:10199000224492440249410182801304840671BFAB
:1019A00091454A85E13588C051FDB1472320F900B2
:1019B0000144E9BF797122D44AD052CC56CA5AC8E0
:1019C0005EC606D626D24ECE2A8AAE8A1304850477
:1019D0000149054BFD5B09ECB25022544A859254F3
:1019E0000259F249624AD24A424BB24B4561828067
:1019F000044483294400FD1963D409000040E1BF79
:101A000083D7C400637BFB008397E400638777017F
:101A1000A6855285829A3369A90093848406E1BF22
:101A20001971A6DAAE848395E500A2DC86DE3284E5
:101A300063DC050083D7C40023A0060093F70708E2
:101A40009DE39307004015A0300836C6512DB246DD
:101A5000E34205FE7247BD67F98F7977BA9793B76E
:101A600017009CC2F9BF930700041CC0F6506654CF
:101A7000D65401450961828083D7C500011122CC6B
:101A800006CE26CA4AC8898B2E8489CF9307740450
:101A90001CC01CC885475CC8F2406244D24442491D
:101AA0000561828074003000AA849D3FA2452A8986
:101AB0002685392201ED8317C40013F7072069FF3B
:101AC000F19B93E727002316F400C9B7970700009E
:101AD000938767D99CD48357C40008C008C893E78C
:101AE00007082316F400A2475CC8B24789CF8315C4
:101AF000E4002685212D01C98357C400F19B93E79B
:101B000017002316F4008357C4003369F900231625
:101B1000240159B7CDC583A7C5FF411122C406C60C
:101B200026C21384C5FF63D307003E94AA84812D87
:101B300097F7FE5F938707CE9C4389EF232204002B
:101B400097F7FE5F23A887CC2244B24026859244B3
:101B500041013DA5637EF40014403307D400639631
:101B6000E7009843DC43369718C05CC0D1BFBA8702
:101B7000D84319C3E37DE4FE94433386D700631F43
:101B800086001040B29694C33386D700E31EC7FA8E
:101B900010435843B29694C3D8C37DB76375C4004D
:101BA000B1479CC055B71040B306C4006316D700B8
:101BB00014435843B29614C058C0C0C371B7828052
:101BC000011126CA93843500F19806CE22CC4AC86A
:101BD0004EC6A104B14763F7F404B14463E6B4040C
:101BE0002A89712B97F7FE5F9387C7C298433A847F
:101BF00031E497F7FE5F938727C29C4381EB8145D1
:101C00004A854D2697F7FE5F23A8A7C0A6854A857B
:101C1000512EFD5963193507B1472320F9004A8534
:101C2000852329A0E3DC04FAB1471CC10145F24039
:101C30006244D2444249B249056182801C40858F8A
:101C400063C00704AD4663F6F6001CC03E9404C0B2
:101C500001A85C406314870217F7FE5F232CF7BAD4
:101C60004A85392B1305B400930744006199330763
:101C7000F54055DF3A94898F1CC055BF5CC3CDB782
:101C800022874040B5B7130435007198E30185FC05
:101C9000B305A4404A853926E31B35FBB5BF1C4676
:101CA000FD171CC663DA0700184E63C5E700A94795
:101CB0006394F5006FF08FFD1C422E85138717008B
:101CC00018C22380B7008280011122CC26CA4AC8DC
:101CD0004EC652C406CE2A89AE893284B304D600D9
:101CE0007D5A63149400014509A8834504004E867B
:101CF0004A8575370504E31645FFF2406244D24435
:101D00004249B249224A05618280357122CD26CBF3
:101D10004AC94EC706CF52C556C35AC1DEDEE2DC01
:101D2000E6DAAA89AE843289368409C51C4D99E366
:101D3000EFF03FB8974700009387075C639BF40C74
:101D400083A4490083D7C400A18BF5C79C48E5C78D
:101D500093070002A304F1029307000302D22305B4
:101D6000F10222C6930B5002974A0000938ACA5C84
:101D7000054C294B4A848347040099C36390770F2D
:101D8000B30C2441638D0C00E6864A86A6854E85F9
:101D9000253FFD576306F51E9256E69636D28347D9
:101DA0000400638F071CFD571309140002C802CEFC
:101DB0003ECA02CCA309010482D48345090015461A
:101DC00056854D2613041900C24759E913F7070138
:101DD00009C713070002A309E10413F7870009C725
:101DE0001307B002A309E104834609001307A00208
:101DF0006380E608F2474A8481462546034704008B
:101E000093051400130707FD6379E60AB5CA3ECEB1
:101E100085A897470000938727506395F40083A413
:101E200089000DB7974700009387074BE39CF4F0B8
:101E300083A4C90001BFA6854E85EFF02FF109D913
:101E40007D55FA406A44DA444A49BA492A4A9A4ACC
:101E50000A4BF65B665CD65C0D618280050421BF8F
:101E6000330555413315AC00C98F3EC82289B1B73F
:101E7000324793064700184336C6634907023ACEF5
:101E8000034704009307E002631FF70403471400AD
:101E90009307A002631BF702B247090413874700A8
:101EA0009C433AC663C107023ECA35A83307E040E7
:101EB00093E727003ACE3EC8E1B7B387670385466C
:101EC0002E84BA9725BFFD57C5B7050402CA8146BF
:101ED000814725460347040093051400130707FDB7
:101EE0006376E606F1F2834504000D4617450000CF
:101EF00013050545852C11CD97470000938747446E
:101F00001D8D93070004B397A700424505045D8D1E
:101F10002AC8834504001946174500001305854269
:101F2000130914002304B102352C3DC197E7FEDFED
:101F30009387470D95E74247B2471377071009CFBC
:101F400091073EC69257D2973ED22DB5B38767030D
:101F500085462E84BA97BDBF9D07E19BA107D5B7E3
:101F6000780097060000938666D626860C084E8574
:101F700097000000E7000000FD572A8AE314F5FCF3
:101F800083D7C40093F70704E39C07EA125555BDB5
:101F9000780097060000938666D326860C084E8547
:101FA000FD24D9BF411122C42A842E8523AE019479
:101FB00006C6EF300033FD576317F5009387C195D0
:101FC0009C4391C31CC0B240224441018280411114
:101FD00022C42E848395E50006C6A92B634905001B
:101FE0007C48AA977CC8B240224441018280835732
:101FF000C4007D777D17F98F2316F400EDB783D7E2
:10200000C500011122CC26CA4AC84EC606CE93F797
:102010000710AA842E843289B68991C78395E5007A
:1020200089460146092A8357C4007D777D17F98FB9
:102030002316F4008315E4006244F240CE864A86FB
:10204000B24942492685D24405613DA8411122C4C6
:102050002E848395E50006C6F928FD570357C40072
:10206000631BF500FD77FD17F98F2316F400B240CE
:102070002244410182808567D98F2316F40068C805
:10208000FDB78395E50005A8411122C42A842E8559
:10209000B285368623AE019406C6EF30E040FD5788
:1020A0006317F5009387C1959C4391C31CC0B24050
:1020B000224441018280411122C42A842E8523AE0C
:1020C000019406C6EF302016FD576317F50093877D
:1020D000C1959C4391C31CC0B240224441018280FF
:1020E000411122C42A842E85B28523AE019406C6EE
:1020F000EF308015FD576317F5009387C1959C431A
:1021000091C31CC0B240224441018280411122C4CB
:102110002A842E8523AE019406C6EF304015FD5764
:102120006317F5009387C1959C4391C31CC0B240CF
:10213000224441018280411122C42A842E85B28525
:10214000368623AE019406C6EF306014FD57631740
:10215000F5009387C1959C4391C31CC0B2402244B3
:102160004101828093F5F50F2A966314C50001455D
:10217000828083470500E38DB7FE0505FDB78280A9
:102180008280797156CA9C49BA8A984522D426D24F
:102190004ECE52CC06D64AD05AC85EC6AA892E84E4
:1021A000B284368A63D3E700BA879CC003473404FD
:1021B00019C385079CC01C4093F7070281C79C4048
:1021C00089079CC00329040013796900631A090078
:1021D000130B9401FD5B5C449840998F634CF904A8
:1021E0001C408346340493F70702B336D000A5EBB6
:1021F00013063404D2854E85829AFD576303F50495
:102200001C4011469840998B544481446397C70001
:10221000B384E64063D3040081441C4418486354EB
:10222000F700998FBE94014969047D5B639824058A
:10223000014509A885465A86D2854E85829A631E35
:1022400075017D55B250225492540259F249624AA6
:10225000D24A424BB24B456182800509ADBF33077C
:10226000D40013060003A301C70403475404938753
:102270001600A2978906A381E7049DBF85462286A2
:10228000D2854E85829AE30E65FB050945B77971C3
:1022900022D426D24AD04ECE06D652CC56CA5AC8DE
:1022A000B68983C685019307E0063289AA842E8405
:1022B000138635046381F61E63E2D7069307300662
:1022C0006382F60A63EDD700638B061E93078005D1
:1022D0006387F616930A24042301D40469A893079C
:1022E00040066386F60093079006E395F6FE1C40D1
:1022F000084393F6070893054500C1C21C410CC36F
:1023000063D807001307D002B307F040A301E40429
:102310009746000093868603294765A093073007F8
:102320006383F61A63EFD7009307F006638FF60412
:1023300093070007E390F6FA9C4193E707029CC1DC
:1023400009A8930750076382F60493078007E39375
:10235000F6F893078007A302F404974600009386DB
:102360002600E5A01C43938A2504938647009C43DE
:1023700014C32381F5048547BDA293F607041C41CD
:102380000CC3BDDEC207C187A5BF0C401C4313F8B8
:102390000508138547006305080008C39C4339A05E
:1023A00093F5050408C3FDD983D707001307F0068A
:1023B000638BE60C97460000938646F92947A301F4
:1023C00004044C400CC463C5050008406D9908C066
:1023D00099E3B28A91CDB28AB3F5E702FD1AB695B8
:1023E00083C505002380BA00B3D5E70263F3E70A8B
:1023F000A147631EF7001C40858B91CB58401C48B9
:1024000063C7E70093070003A38FFAFEFD1A3306A4
:10241000564110C84E87CA867000A2852685EFF007
:102420005FD67D5A6315450D7D55B25022549254A6
:102430000259F249624AD24A424B45618280A382E4
:10244000D50497460000938666F00C40084313F8C5
:1024500005081C4111056300080208C313F71500A5
:1024600001C793E505020CC04147B1FB0C4093F551
:10247000F5FD0CC0A9B713F8050408C3E30008FE76
:10248000C207C183E1BF97460000938626EC21472F
:102490003DB7AE8791B794411C43CC4913F8060869
:1024A000138547006306080008C39C438CC301A83A
:1024B00008C393F606049C43F5DA2390B70023285B
:1024C0000400B28A81BF1C43D041814593864700F6
:1024D00014C383AA07005685EFF0DFC801C5330592
:1024E000554148C05C401CC8A301040425B71448EA
:1024F0005686CA8526858299E30845F31C40898B58
:102500008DE7B2474844E352F5F23E8539BF854630
:102510005686CA8526858299E30865F1050A5C44DA
:102520003247998FE345FAFEE9BF014A930A9401C5
:102530007D5BF5B7411122C42A842E85B28536868B
:1025400023AE019406C6EF203057FD576317F50000
:102550009387C1959C4391C31CC0B2402244410162
:1025600082800000F322203473231034F3233034AC
:10257000D5BF011106CE22CC00102326A4FE2324B1
:10258000B4FE8327C4FE99E3854739A88327C4FE98
:102590009C439447832784FE0547B317F700BE8505
:1025A0000325C4FE8296AA873E85F24062440561F7
:1025B0008280011106CE22CC00102326A4FE232403
:1025C000B4FE2322C4FE8327C4FE99E3854789A075
:1025D000832744FE85E38327C4FE9C43944B8327D3
:1025E00084FE0547B317F700BE850325C4FE829617
:1025F000AA8739A88327C4FE9C43D447832784FE37
:102600000547B317F700BE850325C4FE8296AA8747
:102610003E85F240624405618280011122CE0010A5
:102620002326A4FE0327C4FE854763D4E700814721
:1026300001A80327C4FE0A0793878183BA979C43A6
:102640003E85724405618280011122CE001023264E
:10265000A4FE0327C4FE9387C1836315F700B70761
:10266000000211A081473E857244056182800111FC
:1026700022CE00102326A4FE0327C4FE9387C18325
:102680006314F700894711A081473E8572440561B4
:102690008280011122CE00102326A4FE2324B4FE42
:1026A000832784FE91E7B70700809387070A21A854
:1026B000032784FE85476317F700B70700809387D9
:1026C000070A11A081473E8572440561828001118D
:1026D00022CE00102326A4FE2324B4FE832784FEEA
:1026E00099E38D4709A8032784FE85476314F70003
:1026F0009D4711A081473E857244056182805D71CE
:1027000086C6A2C4CAC2CEC052DE56DC5ADA5ED831
:1027100062D666D48008232EA4FA8327C4FB3E85A4
:1027200025372326A4FC0327C4FCB167F117BA9709
:102730009C432324F4FC0327C4FCB167E117BA9738
:102740009C432322F4FC0327C4FCB167F117BA971A
:102750009C43032784FCE318F7FC832784FC3E8C0E
:10276000814C93190C000149832744FC3E8A814A1D
:10277000336B4901B3EB5901DA875E883E85C28528
:10278000B640264416498649725AE25A525BC25BE9
:10279000325CA25C61618280797106D622D44AD211
:1027A0004ED00018232EA4FC232CB4FC2328C4FCF8
:1027B000232AD4FC8327C4FD2326F4FE8327C4FEEA
:1027C0003E8559352324A4FE832784FD8E073E874A
:1027D000832784FE3E9791679107BA973E87FD57FE
:1027E0001CC3832784FD8E073E87832784FE3E9784
:1027F0009167BA973E87832704FD1CC3832744FD56
:1028000013D907008149832784FD8E073E878327DC
:1028100084FE3E9791679107BA974A8798C381478C
:102820003E85B2502254125982594561828001116D
:1028300006CE22CC0010232604FEF32740F12326E7
:10284000F4FE0325C4FEEF2090062324A4FE0325F6
:1028500084FEEF207003AA873E85F2406244056142
:102860008280397106DE22DC80002326A4FC032549
:10287000C4FCEFF0DFDF2324A4FE8327C4FC232263
:10288000F4FE832744FEDC43B9EF232604FE91A027
:102890008325C4FE0325C4FCEFF0BFDF2320A4FE84
:1028A0008325C4FE0325C4FCEFF07FE2232EA4FCA5
:1028B000832704FE9C43DC438326C4FC0146832516
:1028C000C4FD032504FE82978327C4FE85072326C3
:1028D000F4FE0327C4FE832784FEE34BF7FA832725
:1028E00044FE0547D8C30100F25062542161828042
:1028F000397106DE22DC80002326A4FC2324B4FCEC
:102900002322C4FC2320D4FCFD572326F4FE2324D9
:1029100004FE313F2320A4FE0325C4FCEFF03FD585
:10292000232EA4FC232204FEA1A0832544FE03251C
:10293000C4FCEFF0DFD9232CA4FC832544FE03253F
:10294000C4FCEFF01FD52324A4FE032704FE832735
:1029500084FE6318F700032784FC832784FD63004B
:10296000F702232404FE832744FE85072322F4FE76
:10297000032744FE8327C4FDE349F7FA11A00100B1
:10298000832784FE85C3832784FE9C43DC43832600
:1029900004FC032644FC832584FC032584FE8297E3
:1029A0002326A4FE8327C4FE3E85F2506254216193
:1029B0008280397106DE22DC80002326A4FC2324D9
:1029C000B4FCFD572322F4FE832784FCC9CB2326C5
:1029D00004FEEFF0DFE52320A4FE0325C4FCEFF0A6
:1029E0001FC9232EA4FC232404FEA1A0832584FE5A
:1029F0000325C4FCEFF0BFCD232CA4FC832584FE6B
:102A00000325C4FCEFF0FFC82326A4FE032704FE21
:102A10008327C4FE6318F700032784FC832784FD03
:102A20006300F702232604FE832784FE8507232400
:102A3000F4FE032784FE8327C4FDE349F7FA11A0BF
:102A400001008327C4FE81CF8327C4FE9C439C479B
:102A5000832584FC0325C4FE82972322A4FE010063
:102A60003E85F250625421618280397106DE22DC9B
:102A700080002326A4FC2324B4FCFD572322F4FE6B
:102A8000832784FCC9CB232604FEEFF05FDA2320E2
:102A9000A4FE0325C4FCEFF09FBD232EA4FC232439
:102AA00004FEA1A0832584FE0325C4FCEFF03FC2F1
:102AB000232CA4FC832584FE0325C4FCEFF07FBDFA
:102AC0002326A4FE032704FE8327C4FE6318F70011
:102AD000032784FC832784FD6300F702232604FE7A
:102AE000832784FE85072324F4FE032784FE83279F
:102AF000C4FDE349F7FA11A001008327C4FE81CF8A
:102B00008327C4FE9C43DC47832584FC0325C4FE45
:102B100082972322A4FE01003E85F2506254216177
:102B20008280797106D622D40018232EA4FC232C8F
:102B3000B4FC232AC4FCFD572326F4FE8327C4FDDE
:102B40002324F4FE0325C4FDEFF01FB02322A4FECE
:102B5000032784FD89476309F704032784FD894718
:102B600063C8E700032784FD8547630EF700F1A8DB
:102B7000032784FD8D47630DF704032784FD9147E8
:102B80006309F708D9A0832744FDCDCB032584FE34
:102B9000EFF0FFB6AA872E88032744FD1CC323222B
:102BA0000701232604FE59A8832744FDD1CB8327A0
:102BB00044FD9C432320F4FE832704FE8A073E87BE
:102BC000832744FEBA9723A00700232604FE8DA87E
:102BD000832744FDA5CB832744FD9C432320F4FE9B
:102BE000832704FE8A073E87832744FEBA973E87E1
:102BF00085471CC30F008004832704FE8A073E8795
:102C0000832744FEBA979C432326F4FE232604FE22
:102C100015A8232604FE832744FD9DC7832744FD72
:102C20009C432320F4FE832704FE8A073E878327E4
:102C300044FEBA979C432326F4FE39A0010031A03C
:102C4000010021A0010011A001008327C4FE3E85E0
:102C5000B250225445618280011122CE00102326F9
:102C6000A4FE0327C4FE938741846314F7008147C1
:102C700011A0FD573E85724405618280011122CE6C
:102C800000102326A4FE0327C4FE93874184631704
:102C9000F700B7470F009387072411A081473E85AF
:102CA000724405618280011122CE00102326A4FE09
:102CB0000327C4FE938741846317F700B70700809A
:102CC0009387070A11A081473E857244056182807F
:102CD000011122CE00102326A4FE8327C4FE634ADE
:102CE000F0000327C4FE0A0793874183BA979C43E9
:102CF00011A081473E85724405618280011122CE78
:102D00000010F32740F12326F4FE8327C4FE3E85FE
:102D1000724405618280011122CE0010A147F3A701
:102D200007302326F4FE0100724405618280011100
:102D300022CE0010A147F3B707302326F4FE01008E
:102D4000724405618280011122CE0010A147F3A7D1
:102D500047302326F4FE0100724405618280011190
:102D600022CE0010A147F3B747302326F4FE01001E
:102D7000724405618280011122CE00109307000881
:102D8000F3A747302326F4FE0100724405618280D8
:102D9000011122CE001093070008F3B74730232615
:102DA000F4FE0100724405618280011122CE001000
:102DB000856793870780F3A747302326F4FE010039
:102DC000724405618280011122CE001085679387CD
:102DD0000780F3B747302326F4FE010072440561F3
:102DE0008280797122D60018232EA4FC8327C4FD8B
:102DF0000547B317F7002326F4FE8327C4FEF3A785
:102E000047302324F4FE01003254456182807971F9
:102E100022D60018232EA4FC8327C4FD0547B31730
:102E2000F7002326F4FE8327C4FEF3B7473023249C
:102E3000F4FE0100325445618280011106CE22CC9D
:102E400000102326A4FE2324B4FE13054006EF2021
:102E5000C028011106CE22CC00102326A4FE232474
:102E6000B4FE1305800CEF204027797106D622D4DA
:102E70000018232EA4FC232CB4FCEFF03FE82A8793
:102E80000A0793874183BA979C432326F4FEF327CE
:102E900020342324F4FE8327C4FE9DC70325C4FEEB
:102EA000EFF07FE02322A4FE832784FE93F7F73F11
:102EB000032744FE9387070E8A07BA979C4783250A
:102EC000C4FD0325C4FE82970100B250225445611F
:102ED0008280797106D622D40018232EA4FC232CDC
:102EE000B4FCEFF0BFE1AA873E85EFF07FDE23263A
:102EF000A4FE0325C4FEEF00B0032320A4FE23227A
:102F0000B4FE832704FE032844FEA9450146B38688
:102F1000B70036853335F5003307C800B307E50041
:102F20003E87B6873A88BE8542860325C4FEEF00F9
:102F300010070100B2502254456182800000000059
:102F40000000000000000000000000000000000081
:102F50000000000000000000000000000000000071
:102F60000000000000000000000000000000000061
:102F70000000000000000000000000000000000051
:102F8000197186DE96DC9ADA9ED8A2D6AAD4AED281
:102F9000B2D0B6CEBACCBECAC2C8C6C6F2C4F6C299
:102FA000FAC07EDE0001EFF07FD52A870A079387FB
:102FB0004183BA979C432326F4FAF3272034232431
:102FC000F4FAF32710342322F4FAF32730342320C1
:102FD000F4FAF3275030232EF4F88327C4FAE1C71C
:102FE0000325C4FAEFF03FCC232CA4F8832784FAFE
:102FF00093F7F73F232AF4F8832784FA63D7070867
:10300000032744F9BD4763D7E7008327C4F993F743
:10301000F7039DEF832684F9032744F9BA878607CF
:10302000BA978E07B69783A787092326F4F88326D5
:1030300084F9032744F9BA878607BA978E07B697AB
:1030400083A707098325C4F8032544F98297A1A81B
:103050008327C4F913F7F70389476316F704F327A7
:1030600070302328F4F8832784F983A7C70D23261B
:10307000F4F8832704F92324F4F8832784F88325BC
:10308000C4F8032544F9829739A8032784F98327D4
:1030900044F99387070E8A07BA979C47832544F91A
:1030A0000325C4FA8297F650E6525653C653365457
:1030B000265596550656F6466647D6474648B648BC
:1030C000264E964E064FF25F0961730020300000D5
:1030D00000000000000000000000000000000000F0
:1030E00000000000000000000000000000000000E0
:1030F000000000000000797122D60018232EA4FCE5
:10310000232CB4FCF32750302326F4FE8327C4FE7F
:1031100093F707FC2326F4FE832784FD2324F4FE83
:103120000327C4FD8547630AF7048327C4FDA9CF9D
:103130000327C4FD89476308F7000327C4FD8D47B3
:103140006300F70281A8832784FE93E7270073902A
:1031500077308327C4FE93E72700739057301DA86C
:10316000832784FE93E73700739077308327C4FE6C
:1031700093E737007390573031A8832784FE93E795
:1031800017007390573039A0832784FEF19B73900A
:10319000573001000100325445618280011122CE76
:1031A00000102326A4FE8327C4FEF5177147636D24
:1031B000F70013972700B767012093870739BA975D
:1031C0009C438287854719A0010081473E85724450
:1031D00005618280797106D622D40018232EA4FCC2
:1031E000232CB4FC232AC4FC232604FE8327C4FD1D
:1031F00099E3FD5771A0032784FDFD4763E0E708CD
:10320000832784FD13972700B767012093874740E2
:10321000BA979C438287832744FD81C7EFF0BFAFF5
:10322000B1A8EFF0DFB099A8832744FD81C7EFF084
:103230009FB1A9A0EFF0BFB291A0832744FD81C741
:10324000EFF07FB325A8EFF0BFB40DA8832744FDAE
:1032500081C7EFF09FB51DA0EFF0FFB605A0832753
:1032600044FD99C7832784FD3E85EFF09FB731A0C9
:10327000832784FD3E85EFF09FB901008327C4FEBC
:103280003E85B250225445618280797122D6001861
:10329000232EA4FC232CB4FC232AC4FC8327C4FDC6
:1032A0002326F4FE032784FDAD4763C2E70283278C
:1032B00044FD91CF0327C4FE832784FD9387070E27
:1032C0008A07BA97032744FD98C7814711A0FD5785
:1032D0003E85325445618280397106DE22DC8000F1
:1032E0002326A4FC8327C4FC2322F4FE832744FE68
:1032F000DC43639E0710FD5773B04730FD5773B032
:103300004734F32710302320F4FE032704FE896797
:10331000F98F99E7032704FEB7070400F98F99C7CF
:10332000FD5773B03730FD5773B02730032704FEC5
:10333000B7070400F98F81C7FD5773B0071823261C
:1033400004FEB9A0832644FE0327C4FEBA8786077D
:10335000BA978E07B69723A80708832644FE03274B
:10336000C4FEBA878607BA978E07B69723AA0708BE
:10337000832644FE0327C4FEBA878607BA978E07C2
:10338000B69723AC07088327C4FE85072326F4FEDF
:103390000327C4FEFD47E3D7E7FA232404FE1DA05C
:1033A000032744FE832784FE9387070E8A07BA9774
:1033B000373701201307A7E398C7832784FE8507C3
:1033C0002324F4FE032784FEAD47E3DBE7FCB73795
:1033D0000120938507F80145EFF0FFD1F327103066
:1033E000232EF4FC0327C4FDC16793878702F98F5E
:1033F00099CBF3270030232EF4FC0327C4FD896703
:10340000D98F73900730832744FE0547D8C3010046
:10341000F250625421618280797106D622D400185C
:10342000232EA4FC232CB4FC232AC4FC2328D4FC84
:10343000232604FE8327C4FD2324F4FE032584FDF4
:10344000EFF0DFD5AA8799E3D55739A2832744FD4A
:1034500085CF832684FE032784FDBA878607BA9723
:103460008E07B697032744FD23A8E708832684FE2A
:10347000032784FDBA878607BA978E07B697032776
:1034800004FD23ACE708F9A0832784FDF5177147F5
:103490006362F70C13972700B767012093874748AB
:1034A000BA979C438287832684FE032784FDBA87CC
:1034B0008607BA978E07B697373701201307A7E616
:1034C00023A8E708832684FE032784FDBA8786079E
:1034D000BA978E07B697032704FD23AAE7089DA88D
:1034E000832684FE032784FDBA878607BA978E0752
:1034F000B69737370120130727ED23A8E70883265F
:1035000084FE032784FDBA878607BA978E07B6978D
:10351000032704FD23AAE70835A8832684FE032792
:1035200084FDBA878607BA978E07B697373701208A
:10353000130727E523A8E708832684FE032784FDD5
:10354000BA878607BA978E07B697032704FD23AA82
:10355000E70801008327C4FE3E85B250225445612E
:103560008280011106CE22CC00102326A4FE232443
:10357000B4FE832784FE0546BE850325C4FEEFF016
:103580007FC5AA873E85F2406244056182800111B1
:1035900006CE22CC00102326A4FE2324B4FE8327CB
:1035A00084FE0146BE850325C4FEEFF0BFC2AA8794
:1035B0003E85F240624405618280797106D622D44C
:1035C0000018232EA4FC232CB4FC232AC4FC83273C
:1035D000C4FD2326F4FE832784FD8DEF832744FD5D
:1035E00099EBB7370120938507F8032544FDEFF0E9
:1035F0009FB081470DA0032744FD8547631CF7005A
:103600008327C4FEA107BE85032544FDEFF0BFAEAE
:10361000814711A0FD573E85B250225445618280FA
:10362000797106D622D40018232EA4FC232CB4FCD6
:103630008327C4FD2326F4FE832784FD91EBB7374F
:103640000120938507F80145EFF0FFAA814711A0FB
:10365000FD573E85B250225445618280011122CE31
:1036600000102326A4FE2324B4FE2322C4FE814797
:103670003E85724405618280397122DE80002326F6
:10368000A4FC01438143232464FE232674FE732596
:1036900000B82322A4FE732500B02320A4FE7325C6
:1036A00000B8232EA4FC832844FE0325C4FD6395A3
:1036B000A802032544FEAA85014613980500814708
:1036C000032604FEB286014733E6D7002324C4FE56
:1036D000B367E8002326F4FE832784FE0328C4FE94
:1036E0003E85C285725421618280797106D622D4CA
:1036F0004AD24ED00018232EA4FC8327C4FD81E7B4
:103700000149814921A80325C4FDEFF02FD72326C5
:10371000A4FE8327C4FE3E89FD87BE89CA874E88E2
:103720003E85C285B2502254125982594561828029
:10373000397106DE22DC80002326A4FC8147014883
:10374000232CF4FC232E04FD0325C4FCEFF0AFD59D
:103750002326A4FE8327C4FC2324F4FE8327C4FE6F
:103760008DC78327C4FE83A7C7132322F4FE8327B4
:1037700044FE81CF832744FE9C43984F930784FDEA
:103780003E868545032544FE0297832784FD032852
:10379000C4FD3E85C285F2506254216182807971F8
:1037A00006D622D426D20018232EA4FC2328B4FC4B
:1037B000232AC4FCFD572326F4FE0325C4FDEFF0A5
:1037C0008FCE2324A4FE8327C4FD2322F4FE832767
:1037D00084FE8DCF832784FE83A7C7132320F4FEA6
:1037E000832704FE85C7832704FE9C43C44F03251B
:1037F000C4FDEFF06FC6AA87032604FD832644FDAF
:10380000BE85032504FE82942326A4FE8327C4FEDE
:103810003E85B2502254925445618280011122CEDD
:1038200000102326A4FE9387C1833E857244056160
:103830008280011122CE00102326A4FE9D473E85E2
:10384000724405618280011122CE00102326A4FE5D
:103850009387C1833E85724405618280011122CE27
:1038600000102326A4FE8D473E85724405618280A8
:10387000797106D622D40018232EA4FC232CB4FC84
:10388000FD572326F4FE0325C4FDEFF0CFC123240A
:10389000A4FE8327C4FD2322F4FE832784FE9DC754
:1038A000832784FE83A7C70D2320F4FE832704FE0D
:1038B00091CF832704FE9C43984F930784FD3E8657
:1038C0008D45032504FE02972326A4FE8327C4FE0C
:1038D0003E85B250225445618280797106D622D449
:1038E0000018232EA4FC232CB4FCFD572326F4FE41
:1038F0000325C4FDEFF02FBB2324A4FE8327C4FDC2
:103900002322F4FE832784FE9DC7832784FE83A79A
:10391000C70D2320F4FE832704FE91CF832704FEE6
:103920009C43984F930784FD3E868945032504FEFA
:1039300002972326A4FE8327C4FE3E85B25022545C
:1039400045618280797106D622D40018232EA4FC0A
:10395000232CB4FC232604FE0325C4FDEFF0AFB4F2
:103960002324A4FE8327C4FD2322F4FE832784FEA0
:103970009DC7832784FE83A7C70D2320F4FE8327DA
:1039800004FE91CF832704FE9C43984F930784FD48
:103990003E869145032504FE02972326A4FE832735
:1039A000C4FE3E85B250225445618280011106CE8C
:1039B00022CC00102326A4FE0325C4FEEFF0AFAEF8
:1039C000AA873E85F240624405618280797106D6FD
:1039D00022D40018232EA4FC232CB4FC232AC4FCDC
:1039E0000325C4FDEFF02FAC2326A4FE8327C4FEDD
:1039F00099CB032644FD832584FD0325C4FEEFF007
:103A0000DF88AA8711A0FD573E85B2502254456138
:103A10008280011122CE00102326A4FE2324B4FEAE
:103A2000832784FE83D707008D8B99C3914711A00C
:103A300089473E85724405618280797122D60018DB
:103A4000232EA4FCF32710342326F4FE8327C4FE80
:103A50003E85325445618280011122CE001023261A
:103A6000A4FE2324B4FE832784FE73901734814779
:103A70003E85724405618280011122CE001023260A
:103A8000A4FE0327C4FEB70700809387874563150C
:103A9000F700B707000C11A081473E85724405610D
:103AA0008280011122CE00102326A4FE0327C4FE2B
:103AB000B7070080938787456314F700ED4711A08F
:103AC00081473E85724405618280011122CE00103B
:103AD0002326A4FE0327C4FEB707008093878745EB
:103AE0006314F7009D4711A081473E85724405612C
:103AF0008280011122CE00102326A4FE2324B4FECE
:103B0000832784FE91E7B70700809387070A11A8EF
:103B1000832784FE91E7B70700809387070A11A0E7
:103B200081473E85724405618280011122CE0010DA
:103B30002326A4FE2324B4FE832784FE99E3AD4705
:103B400039A0832784FE99E3AD4711A081473E85C4
:103B5000724405618280797106D622D40018232E22
:103B6000A4FC0325C4FD093F2326A4FE0327C4FEAD
:103B7000B70720009107BA979C433E85B250225464
:103B800045618280797106D622D40018232EA4FCC8
:103B9000232CB4FC0325C4FDEFF01FEE2326A4FE66
:103BA0000327C4FEB70720009107BA973E878327F3
:103BB00084FD1CC30100B25022544561828079719A
:103BC00006D622D40018232EA4FC232CB4FC0325F3
:103BD000C4FDEFF07FEA2326A4FE0327C4FEB70747
:103BE0002000BA973E87832784FD1CC30100B25092
:103BF000225445618280797106D622D40018232E82
:103C0000A4FC232CB4FC232AC4FC0325C4FDEFF040
:103C1000BFE62326A4FE0325C4FDEFF01FEB2324FB
:103C2000A4FE832784FE95C3832784FE032744FDD7
:103C3000637DF700832784FD8A073E878327C4FEC0
:103C4000BA973E87832744FD1CC30100B25022541B
:103C500045618280797106D622D40018232EA4FCF7
:103C6000232CB4FC232AC4FCEFF04F892326A4FEA6
:103C70000325C4FDEFF05FE02324A4FE832784FD29
:103C800095878A073E87832784FE3E978967BA9780
:103C90009C432322F4FE832744FD81CF832784FDA8
:103CA000FD8B0547B317F7003E87832744FED98F66
:103CB00029A8832784FDFD8B0547B317F70093C719
:103CC000F7FF3E87832744FEF98F032784FD15877E
:103CD0000A07BA86032784FEBA96096736971CC37B
:103CE0000100B250225445618280011106CE22CCDF
:103CF00000102326A4FE2324B4FE1305C012EF10E7
:103D0000C03D797106D622D40018232EA4FC232CA2
:103D1000B4FC832784FD2326F4FE0325C4FEEFF0C4
:103D20009FE32324A4FE0325C4FEEFF09FD72322A4
:103D3000A4FE832744FE032784FE6372F70403274F
:103D4000C4FE832784FE8A07BA979C478DCB03273E
:103D5000C4FE832784FE8A07BA9703A88700032638
:103D600084FE8326C4FE032784FEBA878607BA979B
:103D70008E07B69783A78708BE853285029883256C
:103D800084FE0325C4FEEFF0FFDF0100B250225491
:103D900045618280397106DE22DC80002326A4FC86
:103DA0008327C4FC2322F4FE832744FEDC43639272
:103DB0000712232604FE31A20325C4FCEFF07FCEB8
:103DC0002320A4FE8325C4FE0325C4FCEFF07FD28C
:103DD000232EA4FC8325C4FE0325C4FCEFF0FFD4EE
:103DE000232CA4FC8327C4FD9C439C430325C4FDD2
:103DF0008297232404FE95A00146832584FE032593
:103E000044FEEFF03FE50146832584FE032544FE92
:103E1000EFF07FDE032744FE832784FE8A07BA97EC
:103E200023A40700832644FE032784FEBA8786075F
:103E3000BA978E07B69723A20708832644FE032766
:103E400084FEBA878607BA978E07B69723A4070819
:103E5000832784FE85072324F4FE032784FE83271B
:103E600004FEE34BF7F88145032544FEEFF03FD510
:103E70008327C4FD9C43DC43832644FE01468325FF
:103E800084FD0325C4FD82978327C4FD9C43D8434A
:103E9000832644FEB7470120138627D0832584FD5F
:103EA0000325C4FD02978327C4FD9C439C478325BB
:103EB00084FD0325C4FD82978327C4FE850723263E
:103EC000F4FE8327C4FEE359F0EE832744FE054742
:103ED000D8C30100F250625421618280797106D604
:103EE00022D40018232EA4FC232CB4FC232AC4FCC7
:103EF0002328D4FC8327C4FD2326F4FE0325C4FD18
:103F0000EFF03FBA2A87832784FD63C4E700FD579B
:103F100051A0832744FD9DCF0946832584FD0325B9
:103F2000C4FEEFF05FCD0327C4FE832784FD8A071C
:103F3000BA97032744FD98C78326C4FE032784FD50
:103F4000BA878607BA978E07B697032704FD23A47E
:103F5000E70881A00546832584FD0325C4FEEFF014
:103F60009FC90327C4FE832784FD8A07BA97374772
:103F700001201307A7CE98C78326C4FE032784FD1C
:103F8000BA878607BA978E07B697032704FD23A240
:103F9000E70881473E85B25022544561828079719D
:103FA00006D622D40018232EA4FC232CB4FC83278D
:103FB000C4FD2326F4FE0325C4FDEFF09FAE2A873F
:103FC000832784FD63C4E700FD5709A805468325C0
:103FD00084FD0325C4FEEFF0FFC781473E85B25044
:103FE000225445618280797106D622D40018232E8E
:103FF000A4FC232CB4FC8327C4FD2326F4FE032554
:10400000C4FDEFF01FAA2A87832784FD63C4E7005D
:10401000FD5709A80146832584FD0325C4FEEFF062
:104020007FC381473E85B250225445618280011191
:1040300022CE00102326A4FEB707008093874707EF
:104040003E85724405618280011122CE0010232634
:10405000A4FE938741883E857244056182800111E8
:1040600022CE00102326A4FE81473E8572440561BE
:104070008280411122C60008938741863E853244E2
:1040800041018280397106DE22DC80002326A4FCF7
:104090000325C4FC693F2326A4FE0325C4FCC137C5
:1040A0002324A4FE0325C4FC45372322A4FED137D4
:1040B0002320A4FE832704FE9C43832584FE03253E
:1040C00044FE8297232EA4FC0325C4FEEF00306833
:1040D000AA873E878327C4FD93F7F7038507B35765
:1040E000F7023E85F250625421618280011106CEB2
:1040F00022CC00102326A4FE2324B4FE0325C4FEF4
:10410000EFF05FF8AA873E85F24062440561828045
:10411000011122CE00102326A4FEB707008093874A
:1041200007063E85724405618280011122CE00108F
:104130002326A4FE938741883E85724405618280D0
:10414000011122CE00102326A4FE91473E85724421
:1041500005618280411122C60008938741863E8511
:10416000324441018280397106DE22DC8000232640
:10417000A4FC0325C4FC693F2326A4FE0325C4FC3C
:10418000C1372324A4FE0325C4FC45372322A4FE03
:10419000D1372320A4FE832704FE9C43832584FE7D
:1041A000032544FE8297232EA4FC0325C4FEEF00C2
:1041B000105AAA873E85F250625421618280011113
:1041C00006CE22CC00102326A4FE2324B4FE032511
:1041D000C4FEEFF05FF9AA873E85F24062440561B4
:1041E0008280011122CE00102326A4FEB707008092
:1041F000938787753E85724405618280011122CEC6
:1042000000102326A4FEB70700809387C7763E855B
:10421000724405618280011122CE00102326A4FE83
:10422000938741883E85724405618280011122CEC8
:1042300000102326A4FEB1473E85724405618280AA
:10424000411122C60008938741883E8532444101CE
:104250008280411122C60008A1473E8532444101B7
:104260008280411122C60008B727F40093870740D7
:104270003E85324441018280411122C60008B78741
:1042800000103E85324441018280411122C600085F
:10429000938741863E85324441018280011122CEBE
:1042A00000102326A4FE2324B4FE832784FE98470F
:1042B0008327C4FE63E9E700832784FED84783276A
:1042C000C4FE6374F700FD5729A8832784FE984332
:1042D0008327C4FE3307F702832784FEDC43B357EA
:1042E000F7023E85724405618280011106CE22CC20
:1042F0000010EFF01FF72326A4FE8327C4FE91C70A
:10430000B70700801385077831200100F24062442E
:1043100005618280397106DE22DC80002326A4FC40
:104320008327C4FC3E85EFF07FED2326A4FEEFF04B
:104330005FF32324A4FEEFF0DFF12322A4FEEFF0CD
:10434000BFF32320A4FE032704FE832744FEBA976D
:10435000232EF4FC8327C4FCDC4389CB8327C4FCD5
:10436000D8438327C4FC9C473E8502978327C4FD1E
:104370009843C167F98F91EB8327C4FD9843C177B8
:10438000FD177D8F8327C4FD98C38327C4FE91CB7F
:104390008327C4FD9843B70702005D8F8327C4FDC0
:1043A00098C38327C4FC9C43D8438327C4FC83253C
:1043B00084FE3E8502978327C4FCDC4789CB832794
:1043C000C4FCD8478327C4FC9C4B3E850297010060
:1043D000F2506254216182801D7186CEA2CC801081
:1043E0002326A4FA0325C4FAEFF05FE12326A4FEF6
:1043F0000325C4FAEFF0FFDE2324A4FE0325C4FA4C
:10440000EFF03FE52322A4FE0325C4FAEFF05FE3BB
:104410002320A4FE0325C4FAEFF05FE1232EA4FCC1
:104420000325C4FAEFF03FDF232CA4FCEFF0FFE5F7
:10443000232AA4FC832744FD9C43832544FE0325B3
:1044400004FE82972328A4FC832744FD9C438325F4
:10445000C4FD032584FD82972326A4FC032704FDC5
:10446000C1677D8FC1676378F700032584FEEF0085
:10447000102EAA87E1A8032704FDB70702007D8F4D
:10448000B70702006365F7008327C4FE19A08327DE
:1044900084FE3E85EF00B02B2324A4FC032704FDFB
:1044A000B70704007D8FB70704006365F700832713
:1044B00084FC69A8832704FD9D8B85072322F4FCD7
:1044C000832704FD93F7073F918385078607232001
:1044D000F4FC032704FD8567938707C07D8F93074E
:1044E000F03F63E4E700FD5795A0032704FD8567CF
:1044F000938707C0F98FA9830547B317F700232EC9
:10450000F4FA032784FC832744FC3347F70283270C
:1045100004FC3307F7028327C4FBB347F702232CBD
:10452000F4FA8327C4FC13F707109307F00F63F521
:10453000E700832784FB19A8032784FB8327C4FC97
:1045400093F7F70385078607B357F7023E85F640D2
:10455000664425618280397106DE22DC80002326D4
:10456000A4FC2324B4FCFD572326F4FEB7070080E7
:1045700093C7F7FF2324F4FE930730042322F4FEAD
:10458000ADA0832744FE13975700B7670120938798
:104590008757BA97BE850325C4FCEFF03FD0232090
:1045A000A4FE032704FEFD57630CF702032704FE55
:1045B000832784FC1D8F9357F7413D8FB307F74046
:1045C000232EF4FC0327C4FD832784FE635AF700DF
:1045D000832744FE2326F4FE8327C4FD2324F4FE10
:1045E000832744FEFD172322F4FE832744FEE3DAEB
:1045F00007F88327C4FE3E85F25062542161828011
:10460000011122CE00102326A4FE2324B4FE23226F
:10461000C4FE8327C4FE9C4313F787FF8327C4FE91
:1046200098C38327C4FE9843832744FE9C4B9D8BED
:104630005D8F8327C4FE98C38327C4FE9C4313F772
:10464000F7C08327C4FE98C38327C4FE98438327FB
:1046500044FEDC4B920793F7073F5D8F8327C4FE30
:1046600098C38327C4FE9843FD779387F73F7D8FD8
:104670008327C4FE98C38327C4FE9843832744FE40
:104680009C4F9396A7008567938707C0F58F5D8F32
:104690008327C4FE98C3832744FEDC4F63DB0702F5
:1046A000832784FE9C4313E70710832784FE98C367
:1046B000832784FE9C4313F707FC832784FE98C35B
:1046C000832784FE9C4313E71700832784FE98C347
:1046D0002DA8832784FE9C4313F7F7EF832784FEDE
:1046E00098C3832784FE9C4313F707FC832784FE2B
:1046F00098C3832784FE9843832744FEDC4F93F7B7
:10470000F7035D8F832784FE98C38327C4FE9843F5
:10471000B707FCFFFD177D8F8327C4FE98C30100F8
:104720008327C4FE9C43E3DD07FE0100724405615C
:1047300082805D7186C6A2C48008232EA4FA232C31
:10474000B4FA0325C4FBEFF07FAB2326A4FE0325B8
:10475000C4FBEFF01FA92324A4FE0325C4FBEFF044
:104760005FAF2322A4FE0325C4FBEFF03FAC232060
:10477000A4FEEFF07FB0232EA4FC0327C4FD832703
:1047800044FEBA97232CF4FC0327C4FD832704FEC0
:10479000BA97232AF4FC832784FD9843C167F98FD5
:1047A00091CB832784FD9843C177FD177D8F8327A5
:1047B00084FD98C3832784FD9843B7070200F98FCF
:1047C00081C78327C4FE19A0832784FE3E85EF009E
:1047D00000782328A4FC032704FDBA878607BA972C
:1047E00013D7F7410D8BBA9789873E87832784FBC0
:1047F00063CBE702032704FDBA878A07BA9713D76A
:10480000F7410D8BBA9789873E87832784FB634CDA
:10481000F700832784FD9843B70704005D8F832743
:1048200084FD98C381A8832584FB032504FDEFF054
:104830009FD22326A4FC0327C4FCFD576303F70281
:104840008327C4FC13975700B767012093878757C6
:10485000BA973E86832544FD032584FDEFF05FDA99
:1048600011A8832784FD9843B70704005D8F832731
:1048700084FD98C3832784FD9843C1675D8F832798
:1048800084FD98C30325C4FBEFF01FB5AA873E85BE
:10489000B640264461618280011106CE22CC001010
:1048A000EFF03F9C2326A4FE8325C4FEB7070080BB
:1048B00013850778C1250100F240624405618280BA
:1048C000411122C60008B78700103E8532444101DD
:1048D0008280797106D622D40018232EA4FC232CC2
:1048E000B4FCEFF0FFFDAA872326F4FE032784FD26
:1048F0008327C4FEBA979C433E85B250225445613B
:104900008280797106D622D40018232EA4FC232C91
:10491000B4FC232AC4FCEFF0BFFAAA872326F4FED6
:10492000032784FD8327C4FEBA973E87832744FD6F
:104930001CC33E85B250225445618280011122CEB3
:1049400000102326A4FE0327C4FE938781846315E9
:10495000F700B727011011A081473E857244056119
:104960008280797106D622D40018232EA4FC232C31
:10497000B4FC0325C4FDEFF07FFCAA872326F4FED8
:104980008327C4FE91079C43032784FD1347F7FF49
:10499000BA860327C4FE1107F58F1CC381473E85E5
:1049A000B250225445618280797106D622D4001813
:1049B000232EA4FC0325C4FDEFF05FF8AA8723266D
:1049C000F4FE8327C4FEB1079C433E85B2502254B7
:1049D00045618280797106D622D40018232EA4FC6A
:1049E000232CB4FC0325C4FDEFF05FF5AA87232632
:1049F000F4FE8327C4FEA1079843832784FD832602
:104A0000C4FEA106D98F9CC281473E85B250225474
:104A100045618280797106D622D40018232EA4FC29
:104A2000232CB4FC0325C4FDEFF05FF1AA872326F5
:104A3000F4FE8327C4FEB1079843832784FD8326B1
:104A4000C4FEB106D98F9CC281473E85B250225424
:104A500045618280797106D622D40018232EA4FCE9
:104A6000232CB4FC0325C4FDEFF05FEDAA872326B9
:104A7000F4FE8327C4FEB1079C43032784FD13473C
:104A8000F7FFBA860327C4FE3107F58F1CC38147A1
:104A90003E85B250225445618280797106D622D477
:104AA0000018232EA4FC232CB4FC0325C4FDEFF036
:104AB000FFE8AA872326F4FE8327C4FEB1079843A4
:104AC000832784FD8326C4FEB106B98F9CC281472B
:104AD0003E85B250225445618280797106D622D437
:104AE0000018232EA4FC232CB4FC232AC4FC032589
:104AF000C4FDEFF0BFE4AA872326F4FE8327C4FE9B
:104B00009387C7039C43032784FD1347F7FFBA86A7
:104B10000327C4FE1307C703F58F1CC38327C4FEF6
:104B2000938787039843832744FD8326C4FE938697
:104B30008603D98F9CC281473E85B250225445617D
:104B40008280011122CE00102326A4FE0327C4FE7A
:104B50009387C1846315F700B737011011A081470F
:104B60003E85724405618280011122CE0010232609
:104B7000A4FE0327C4FE9387C1846317F700B70719
:104B800000809387874511A081473E857244056167
:104B90008280011122CE00102326A4FE95473E8577
:104BA000724405618280011122CE00102326A4FEEA
:104BB000B7070080938707783E857244056182803D
:104BC000011122CE00102326A4FE938781843E8506
:104BD000724405618280011122CE00102326A4FEBA
:104BE000B70703003E85724405618280011122CE21
:104BF00000102326A4FEB70703003E85724405611A
:104C00008280011106CE22CC00102326A4FE0325AB
:104C1000C4FEEFF07FF5AA873E85F240624405614D
:104C20008280011106CE22CC00102326A4FE03258B
:104C3000C4FEEFF01FF6AA87938707023E85F24075
:104C4000624405618280797106D622D40018232E31
:104C5000A4FCAE87A30DF4FC0325C4FDEFF07FEEAA
:104C6000AA872326F4FE01008327C4FE9C43E3CDDC
:104C700007FE8327C4FE0347B4FD98C381473E85E2
:104C8000B250225445618280797106D622D4001830
:104C9000232EA4FC232CB4FCB70700802326F4FEAB
:104CA0000325C4FDEFF0FFE9AA872324F4FE39A011
:104CB000832784FE91079C432326F4FE8327C4FEAA
:104CC000E3C807FE8327C4FE13F7F70F832784FD8D
:104CD0002380E70081473E85B2502254456182809F
:104CE000797122D60018232EA4FC8327C4FD232625
:104CF000F4FE8327C4FEDC433E8532544561828046
:104D0000797106D622D40018232EA4FC232CB4FCDF
:104D10008327C4FD2326F4FE0325C4FDEFF07FE2C4
:104D2000AA872324F4FE0325C4FDEFF0DFE7232246
:104D3000A4FE032784FD8327C4FED8C3832744FE33
:104D4000B1CB832744FE9C439C43032544FE8297BA
:104D50002320A4FE032704FE832784FDB347F70224
:104D60001387F7FF832784FEE10798C3832784FE18
:104D7000A1079C43032784FE210793E717001CC368
:104D8000832784FEB1079C43032784FE310793E702
:104D900017001CC381473E85B25022544561828072
:104DA000397106DE22DC80002326A4FC8327C4FCA4
:104DB0002326F4FE0325C4FCEFF0BFD8AA872324E2
:104DC000F4FE0325C4FCEFF01FDE2322A4FE83279C
:104DD00084FEA1079843832784FEA107BE86B707F8
:104DE000F9FFFD17F98F9CC2832784FEA107984322
:104DF000832784FEA107BE86C167D98F9CC20100AC
:104E0000832784FED1079C43858BFDDB832784FEAB
:104E1000A1079C43898B99C3A54711A0A9472320CB
:104E2000F4FE832744FE9C439C43032544FE829763
:104E3000232EA4FC032704FE8327C4FDB307F70237
:104E40003E878327C4FEDC43B357F702232CF4FCD0
:104E5000232A04FC39A00100832744FD8507232A67
:104E6000F4FC832744FD032784FDE3C6E7FE01002D
:104E7000F250625421618280797106D622D40018E2
:104E8000232EA4FC8327C4FD2326F4FE0327C4FE9F
:104E90008327C4FEDC43BE853A856D240100B250F1
:104EA000225445618280397106DE22DC800023268F
:104EB000A4FC2324B4FC8327C4FC2326F4FE03258E
:104EC000C4FCEFF05FCE2324A4FE0325C4FCEFF066
:104ED0003FCF2322A4FE832784FE9DC30326C4FC68
:104EE000B7570120938507DA032584FEF5200326B2
:104EF000C4FCB7570120938587E7032584FE212250
:104F00008327C4FE832584FC3E852D2C832744FE05
:104F100095CB0325C4FCEFF01FCCAA872320F4FE19
:104F20000325C4FCEFF09FCCAA87232EF4FC832733
:104F300044FE9C439C4F0326C4FD832504FE0325A9
:104F400044FE82970100F250625421618280011177
:104F500006CE22CC00102326A4FE8327C4FE9C4349
:104F60009C430325C4FE8297AA873E85F240624493
:104F700005618280797106D622D40018232EA4FC04
:104F8000232CB4FC8327C4FDDC4389CB8327C4FDD9
:104F9000D8438327C4FD9C473E8502978327C4FDE1
:104FA0009C43DC43832584FD0325C4FD829723268F
:104FB000A4FE8327C4FDDC4789CB8327C4FDD847E3
:104FC0008327C4FD9C4B3E8502978327C4FE3E8504
:104FD000B250225445618280011122CE0010232656
:104FE000A4FE2324B4FE2322C4FE8327C4FE032789
:104FF00084FED8C38327C4FE032744FE98C701005C
:10500000724405618280011122CE00102326A4FE85
:105010002324B4FE2322C4FE8327C4FE032784FE78
:10502000D8C78327C4FE032744FE98CB01007244EF
:1050300005618280011106CE22CC00102326A4FE39
:105040008327C4FE9C439C430325C4FE8297AA8702
:105050002E883E85C285F24062440561828001113E
:1050600006CE22CC00102326A4FE8327C4FE9C4338
:10507000DC430325C4FE8297AA872E883E85C2851D
:10508000F240624405618280011106CE22CC0010FC
:105090002326A4FE8327C4FE9C43DC570325C4FEBD
:1050A0008297AA873E85F2406244056182800111A1
:1050B00022CE00102326A4FE8327C4FE634AF000FC
:1050C0000327C4FE0A0793874183BA979C4311A024
:1050D00081473E85724405618280011122CE001015
:1050E0002326A4FE0100FDBF011106CE22CC001034
:1050F0002326A4FE2324B4FE8327C4FE9C439C43A2
:10510000832584FE0325C4FE8297F2406244056134
:105110008280011106CE22CC00102326A4FEAE8789
:10512000A305F4FE8327C4FE9C43D8438347B4FE03
:10513000BE850325C4FE0297AA873E85F2406244DD
:1051400005618280011106CE22CC00102326A4FE28
:105150002324B4FE8327C4FE9C439C4B832584FEFA
:105160000325C4FE8297AA873E85F240624405610A
:105170008280011122CE00102326A4FE0327C4FE44
:10518000B7070080938707066317F700B727F40077
:105190009387074025A80327C4FEB707008093879D
:1051A00047076317F700B7A74A049387072039A872
:1051B0000327C4FEB7070080938787086317F700AB
:1051C000B757E8019387078011A081473E85724455
:1051D00005618280011106CE22CC00102326A4FE98
:1051E0000325C4FEEFF0FFF8AA873E85F240624433
:1051F00005618280011106CE22CC00102326A4FE78
:105200002324B4FE0325C4FEEFF0DFFCAA873E850D
:10521000F240624405618280411122C6000801000B
:10522000324441018280011106CE22CC0010232697
:10523000A4FEE12E2A87930780051CC3FD573E85F7
:10524000F240624405618280011106CE22CC00103A
:105250002326A4FE2324B4FE4D2E2A87930780FA2A
:105260001CC3FD573E85F2406244056182800111F6
:1052700022CE00102326A4FE8327C4FEFD1793B779
:10528000170093F7F70F3E85724405618280011184
:1052900006CE22CC00102326A4FE2324B4FE232213
:1052A000C4FEA5262A87930780051CC3FD573E85AB
:1052B000F240624405618280011106CE22CC0010CA
:1052C0002326A4FE2324B4FE2322C4FE3D2E2A87D7
:1052D000930780051CC3FD573E85F240624405617B
:1052E0008280797122D60018232EA4FC83A74187DF
:1052F0002326F4FE138701D6938701166314F70063
:10530000814705A803A741878327C4FD3E9793875C
:105310000116637AF70003A741878327C4FD3E97F0
:1053200023AAE18629A01387011623AAE1868327F1
:10533000C4FE3E853254456182801D7186CEA2CC6A
:10534000CACACEC8D2C6D6C4DAC2DEC080102326EE
:10535000A4FAB717008083A6078203A7C188B6877F
:10536000D98F89EFB7170080938707829C4799E709
:105370008145B717008013850782792A930704FCBB
:1053800081453E85512A930784FBBE850145EF0088
:105390005039232EA4FC8327C4FD99C3FD57D5A8FB
:1053A000832704FC032844FC3717008083250782E9
:1053B00003A6C188B386B740368533B5A700330747
:1053C000C840B307A7403E87B6873A8837470F00E3
:1053D00013070724B306E80201473387E702BA96AA
:1053E00037470F00130707243386E702B3B9E702F4
:1053F0003289B3873601BE89032784FCB717008042
:10540000938707829C47B307F7403E8BFD87BE8B8F
:10541000B30769013E873337270133887901429703
:105420003A882328F4FC232A04FD832604FD03275D
:1054300044FD832784FB0328C4FBB305F70233062E
:10544000D8022E96B385F602B3BAF6022E8AB307B7
:105450005601BE8A37460F00130606248146528540
:10546000D685E126AA872E883E878327C4FA98C36B
:105470008327C4FA23A407008327C4FA9847832705
:10548000C4FAD8C78327C4FAD8478327C4FAD8C335
:1054900081473E85F64066445649C649364AA64A83
:1054A000164B864B25618280797106D622D400186E
:1054B000232EA4FC232CB4FC232AC4FC0327C4FD04
:1054C00085476309F70091222A87930780051CC34B
:1054D000FD5735A8832784FD2324F4FE232604FEEC
:1054E00005A0032784FE8327C4FEBA9783C707005D
:1054F0003E85EF0090278327C4FE85072326F4FE10
:105500000327C4FE832744FDE36DF7FC81473E85F6
:10551000B250225445618280397106DE22DC4ADABB
:105520004ED880002326A4FC2324B4FC930704FE59
:10553000BE850145EF00701A2326A4FE8327C4FE12
:1055400099C3FD577DA0930784FDBE850145EF00FB
:10555000501D2326A4FE8327C4FE99C3FD5751A8DE
:10556000832704FE032844FE832684FD0327C4FD0D
:105570003686BA863E85C2854D2CAA872E8803279B
:10558000C4FC1CC323220701832704FE032844FE16
:10559000832684FD0327C4FD3686BA863E85C285F0
:1055A000E523AA872E8837470F0013070724B30681
:1055B000E80201473387E702BA9637470F0013071F
:1055C00007243386E702B3B9E7023289B38736018D
:1055D000BE89832784FD0328C4FD3E86C2864A8592
:1055E000CE85A124AA872E883E878327C4FC98C72E
:1055F00081473E85F25062545259C25921618280DE
:10560000AA85814601460145E9A89387C18288435E
:105610008280411122C406C6970700009387E714D1
:105620002A8499C3814581229387018388431C552D
:1056300091C382972285EF00101A4111972700002D
:105640009387479222C4172400001304A4911D8C51
:1056500026C206C60984BE8419E42244B24092449C
:1056600041016FA07FAF7D1493172400A6979C4340
:105670008297DDB74111972700009387A78D22C439
:10568000172400001304048D1D8C26C24AC006C6D0
:10569000098481443E8963988402EFA0FFAB972779
:1056A00000009387278B172400001304A48B1D8C04
:1056B000098481443E89639F8400B240224492441D
:1056C00002494101828093972400CA979C43850434
:1056D0008297D1B793972400CA979C4385048297F9
:1056E000D9BF97B7FE5F938767139C432A8E8DE3DC
:1056F0001387818997B7FE5F23A2E71217B5FEDFF4
:1057000013054590BA8709C51C4123A0F192BA87B9
:10571000D8437D487D556347E804630E0E0203A815
:1057200087086301080493182700C29823A0C800C3
:105730000323081005463316E6003363C300232015
:10574000681023A0D80889466317DE008326481016
:10575000558E2322C810930617000A07D4C3BA97A0
:105760008CC701458280797152CC56CA5AC85EC630
:1057700006D622D426D24AD04ECE62C42A8B2E8A96
:10578000938A0188854B03A40A0011C844408329E9
:1057900084081389F4FF8A04A294635E0900B2505E
:1057A000225492540259F249624AD24A424BB24BB5
:1057B000224C45618280630E0A00639509007D19C1
:1057C000F114E1BF93172900CE9783A70708E39848
:1057D00047FF5840DC407D1763182703232224012C
:1057E000F9DF032C44006388090083A6091033976E
:1057F0002B01F98E89EE8297584083A70A00E314A3
:1058000087F9E30EF4FA41B723A20400D1BF93163F
:105810002900CE968C4283A64910758F01E75A85E0
:105820008297D9BF2E858297C1BFAE8732883687CF
:105830002A8363960620971800009388A86163FE68
:10584000C50A41676374E60A1307F00F3337C700D0
:105850000E07B356E600B69883C60800369793063F
:105860000002998E99CAB397D7003357E5003318D1
:10587000D600B365F7003313D5001355080133F78D
:10588000A50213160801418293560301B3D5A50260
:105890004207D98EB307B6022E8763FCF600C29684
:1058A0001387F5FF63E7060163F5F6001387E5FF4D
:1058B000C2969D8EB3F7A602420313530301B3D6DB
:1058C000A602C20733E36700B305D6023685637BC1
:1058D000B30042931385F6FF636603016374B3005C
:1058E0001385E6FF4207498F81454DA8B7060001A1
:1058F0004147E360D6F66147A9BF01E6854633D844
:10590000C602C166637ED8089306F00F63F30601F2
:105910002147B356E800B69883C60800BA96130725
:105920000002158F49E7B3870741854513560801E3
:105930009318080193D808019356030133F7C7025F
:10594000B3D7C7024207D98E3385F8023E8763FC7E
:10595000A600C2961387F7FF63E7060163F5A6006A
:105960001387E7FFC296898EB3F7C602420313532B
:105970000301B3D6C602C20733E36700B388D80277
:105980003685637B130142931385F6FF636603013B
:10599000637413011385E6FF4207498F3A858280BD
:1059A000B70600014147E366D8F661479DB7331853
:1059B000E800B3D5D7003313E500B356D50013552F
:1059C0000801B397E70033F7A502B3E8F600931791
:1059D0000801C18313D60801B3D5A5024207518F30
:1059E000B386B7022E86637CD70042971386F5FFF5
:1059F000636707016375D7001386E5FF4297B30617
:105A0000D74033F7A602C20893D80801B3D6A6023E
:105A10004207B385D702B3671701368763FCB70027
:105A2000C2971387F6FF63E7070163F5B700138793
:105A3000E6FFC2978D8F93150601D98DC5BD63E230
:105A4000D514416763FEE6021308F00F3337D80020
:105A50000E0733D8E600971500009385A53FC29541
:105A600003C80500930500023A98B385054185E116
:105A70000547E3E5F6F23335C5001347150039BF96
:105A8000B70500014147E3E6B6FC6147D9B7335794
:105A90000601B396B600D98E93DE060133D707010F
:105AA000B378D703B397B700335805013363F800D1
:105AB00093970601C183135803013316B600335779
:105AC000D703C20833E80801338FE7023A8E637CBC
:105AD000E8013698130EF7FF6367D8006375E80195
